{
  "_format": "hh-sol-artifact-1",
  "contractName": "MythicRealms",
  "sourceName": "contracts/MythicRealms.sol",
  "abi": [
    {
      "inputs": [
        {
          "internalType": "string",
          "name": "_metadataURI",
          "type": "string"
        }
      ],
      "stateMutability": "nonpayable",
      "type": "constructor"
    },
    {
      "anonymous": false,
      "inputs": [
        {
          "indexed": true,
          "internalType": "address",
          "name": "account",
          "type": "address"
        },
        {
          "indexed": true,
          "internalType": "address",
          "name": "operator",
          "type": "address"
        },
        {
          "indexed": false,
          "internalType": "bool",
          "name": "approved",
          "type": "bool"
        }
      ],
      "name": "ApprovalForAll",
      "type": "event"
    },
    {
      "anonymous": false,
      "inputs": [
        {
          "indexed": false,
          "internalType": "string",
          "name": "battleName",
          "type": "string"
        },
        {
          "indexed": true,
          "internalType": "address",
          "name": "winner",
          "type": "address"
        },
        {
          "indexed": true,
          "internalType": "address",
          "name": "loser",
          "type": "address"
        }
      ],
      "name": "BattleEnded",
      "type": "event"
    },
    {
      "anonymous": false,
      "inputs": [
        {
          "indexed": true,
          "internalType": "string",
          "name": "battleName",
          "type": "string"
        },
        {
          "indexed": true,
          "internalType": "bool",
          "name": "isFirstMove",
          "type": "bool"
        }
      ],
      "name": "BattleMove",
      "type": "event"
    },
    {
      "anonymous": false,
      "inputs": [
        {
          "indexed": false,
          "internalType": "string",
          "name": "battleName",
          "type": "string"
        },
        {
          "indexed": true,
          "internalType": "address",
          "name": "player1",
          "type": "address"
        },
        {
          "indexed": true,
          "internalType": "address",
          "name": "player2",
          "type": "address"
        }
      ],
      "name": "NewBattle",
      "type": "event"
    },
    {
      "anonymous": false,
      "inputs": [
        {
          "indexed": true,
          "internalType": "address",
          "name": "owner",
          "type": "address"
        },
        {
          "indexed": false,
          "internalType": "uint256",
          "name": "id",
          "type": "uint256"
        },
        {
          "indexed": false,
          "internalType": "uint256",
          "name": "attackStrength",
          "type": "uint256"
        },
        {
          "indexed": false,
          "internalType": "uint256",
          "name": "defenseStrength",
          "type": "uint256"
        }
      ],
      "name": "NewGameToken",
      "type": "event"
    },
    {
      "anonymous": false,
      "inputs": [
        {
          "indexed": true,
          "internalType": "address",
          "name": "owner",
          "type": "address"
        },
        {
          "indexed": false,
          "internalType": "string",
          "name": "name",
          "type": "string"
        }
      ],
      "name": "NewPlayer",
      "type": "event"
    },
    {
      "anonymous": false,
      "inputs": [
        {
          "indexed": true,
          "internalType": "address",
          "name": "previousOwner",
          "type": "address"
        },
        {
          "indexed": true,
          "internalType": "address",
          "name": "newOwner",
          "type": "address"
        }
      ],
      "name": "OwnershipTransferred",
      "type": "event"
    },
    {
      "anonymous": false,
      "inputs": [
        {
          "indexed": false,
          "internalType": "address[2]",
          "name": "damagedPlayers",
          "type": "address[2]"
        }
      ],
      "name": "RoundEnded",
      "type": "event"
    },
    {
      "anonymous": false,
      "inputs": [
        {
          "indexed": true,
          "internalType": "address",
          "name": "operator",
          "type": "address"
        },
        {
          "indexed": true,
          "internalType": "address",
          "name": "from",
          "type": "address"
        },
        {
          "indexed": true,
          "internalType": "address",
          "name": "to",
          "type": "address"
        },
        {
          "indexed": false,
          "internalType": "uint256[]",
          "name": "ids",
          "type": "uint256[]"
        },
        {
          "indexed": false,
          "internalType": "uint256[]",
          "name": "values",
          "type": "uint256[]"
        }
      ],
      "name": "TransferBatch",
      "type": "event"
    },
    {
      "anonymous": false,
      "inputs": [
        {
          "indexed": true,
          "internalType": "address",
          "name": "operator",
          "type": "address"
        },
        {
          "indexed": true,
          "internalType": "address",
          "name": "from",
          "type": "address"
        },
        {
          "indexed": true,
          "internalType": "address",
          "name": "to",
          "type": "address"
        },
        {
          "indexed": false,
          "internalType": "uint256",
          "name": "id",
          "type": "uint256"
        },
        {
          "indexed": false,
          "internalType": "uint256",
          "name": "value",
          "type": "uint256"
        }
      ],
      "name": "TransferSingle",
      "type": "event"
    },
    {
      "anonymous": false,
      "inputs": [
        {
          "indexed": false,
          "internalType": "string",
          "name": "value",
          "type": "string"
        },
        {
          "indexed": true,
          "internalType": "uint256",
          "name": "id",
          "type": "uint256"
        }
      ],
      "name": "URI",
      "type": "event"
    },
    {
      "inputs": [],
      "name": "MAX_ATTACK_DEFEND_STRENGTH",
      "outputs": [
        {
          "internalType": "uint256",
          "name": "",
          "type": "uint256"
        }
      ],
      "stateMutability": "view",
      "type": "function"
    },
    {
      "inputs": [
        {
          "internalType": "uint8",
          "name": "_choice",
          "type": "uint8"
        },
        {
          "internalType": "string",
          "name": "_battleName",
          "type": "string"
        }
      ],
      "name": "attackOrDefendChoice",
      "outputs": [],
      "stateMutability": "nonpayable",
      "type": "function"
    },
    {
      "inputs": [
        {
          "internalType": "address",
          "name": "account",
          "type": "address"
        },
        {
          "internalType": "uint256",
          "name": "id",
          "type": "uint256"
        }
      ],
      "name": "balanceOf",
      "outputs": [
        {
          "internalType": "uint256",
          "name": "",
          "type": "uint256"
        }
      ],
      "stateMutability": "view",
      "type": "function"
    },
    {
      "inputs": [
        {
          "internalType": "address[]",
          "name": "accounts",
          "type": "address[]"
        },
        {
          "internalType": "uint256[]",
          "name": "ids",
          "type": "uint256[]"
        }
      ],
      "name": "balanceOfBatch",
      "outputs": [
        {
          "internalType": "uint256[]",
          "name": "",
          "type": "uint256[]"
        }
      ],
      "stateMutability": "view",
      "type": "function"
    },
    {
      "inputs": [],
      "name": "baseURI",
      "outputs": [
        {
          "internalType": "string",
          "name": "",
          "type": "string"
        }
      ],
      "stateMutability": "view",
      "type": "function"
    },
    {
      "inputs": [
        {
          "internalType": "string",
          "name": "",
          "type": "string"
        }
      ],
      "name": "battleInfo",
      "outputs": [
        {
          "internalType": "uint256",
          "name": "",
          "type": "uint256"
        }
      ],
      "stateMutability": "view",
      "type": "function"
    },
    {
      "inputs": [
        {
          "internalType": "uint256",
          "name": "",
          "type": "uint256"
        }
      ],
      "name": "battles",
      "outputs": [
        {
          "internalType": "enum MythicRealms.BattleStatus",
          "name": "battleStatus",
          "type": "uint8"
        },
        {
          "internalType": "string",
          "name": "name",
          "type": "string"
        },
        {
          "internalType": "address",
          "name": "winner",
          "type": "address"
        }
      ],
      "stateMutability": "view",
      "type": "function"
    },
    {
      "inputs": [
        {
          "internalType": "string",
          "name": "_name",
          "type": "string"
        },
        {
          "internalType": "uint256",
          "name": "playerTokenId",
          "type": "uint256"
        }
      ],
      "name": "createBattle",
      "outputs": [
        {
          "components": [
            {
              "internalType": "enum MythicRealms.BattleStatus",
              "name": "battleStatus",
              "type": "uint8"
            },
            {
              "internalType": "string",
              "name": "name",
              "type": "string"
            },
            {
              "internalType": "address[2]",
              "name": "players",
              "type": "address[2]"
            },
            {
              "internalType": "uint256[2]",
              "name": "playerTokenIds",
              "type": "uint256[2]"
            },
            {
              "internalType": "uint256[2]",
              "name": "moves",
              "type": "uint256[2]"
            },
            {
              "internalType": "address",
              "name": "winner",
              "type": "address"
            }
          ],
          "internalType": "struct MythicRealms.Battle",
          "name": "",
          "type": "tuple"
        }
      ],
      "stateMutability": "nonpayable",
      "type": "function"
    },
    {
      "inputs": [
        {
          "internalType": "string",
          "name": "_name",
          "type": "string"
        }
      ],
      "name": "createRandomGameToken",
      "outputs": [],
      "stateMutability": "nonpayable",
      "type": "function"
    },
    {
      "inputs": [
        {
          "internalType": "uint256",
          "name": "id",
          "type": "uint256"
        }
      ],
      "name": "exists",
      "outputs": [
        {
          "internalType": "bool",
          "name": "",
          "type": "bool"
        }
      ],
      "stateMutability": "view",
      "type": "function"
    },
    {
      "inputs": [
        {
          "internalType": "uint256",
          "name": "",
          "type": "uint256"
        }
      ],
      "name": "gameTokens",
      "outputs": [
        {
          "internalType": "string",
          "name": "name",
          "type": "string"
        },
        {
          "internalType": "uint256",
          "name": "id",
          "type": "uint256"
        },
        {
          "internalType": "uint256",
          "name": "tokenHash",
          "type": "uint256"
        },
        {
          "internalType": "uint256",
          "name": "attackStrength",
          "type": "uint256"
        },
        {
          "internalType": "uint256",
          "name": "defenseStrength",
          "type": "uint256"
        }
      ],
      "stateMutability": "view",
      "type": "function"
    },
    {
      "inputs": [],
      "name": "getAllBattles",
      "outputs": [
        {
          "components": [
            {
              "internalType": "enum MythicRealms.BattleStatus",
              "name": "battleStatus",
              "type": "uint8"
            },
            {
              "internalType": "string",
              "name": "name",
              "type": "string"
            },
            {
              "internalType": "address[2]",
              "name": "players",
              "type": "address[2]"
            },
            {
              "internalType": "uint256[2]",
              "name": "playerTokenIds",
              "type": "uint256[2]"
            },
            {
              "internalType": "uint256[2]",
              "name": "moves",
              "type": "uint256[2]"
            },
            {
              "internalType": "address",
              "name": "winner",
              "type": "address"
            }
          ],
          "internalType": "struct MythicRealms.Battle[]",
          "name": "",
          "type": "tuple[]"
        }
      ],
      "stateMutability": "view",
      "type": "function"
    },
    {
      "inputs": [
        {
          "internalType": "string",
          "name": "_name",
          "type": "string"
        }
      ],
      "name": "getBattle",
      "outputs": [
        {
          "components": [
            {
              "internalType": "enum MythicRealms.BattleStatus",
              "name": "battleStatus",
              "type": "uint8"
            },
            {
              "internalType": "string",
              "name": "name",
              "type": "string"
            },
            {
              "internalType": "address[2]",
              "name": "players",
              "type": "address[2]"
            },
            {
              "internalType": "uint256[2]",
              "name": "playerTokenIds",
              "type": "uint256[2]"
            },
            {
              "internalType": "uint256[2]",
              "name": "moves",
              "type": "uint256[2]"
            },
            {
              "internalType": "address",
              "name": "winner",
              "type": "address"
            }
          ],
          "internalType": "struct MythicRealms.Battle",
          "name": "",
          "type": "tuple"
        }
      ],
      "stateMutability": "view",
      "type": "function"
    },
    {
      "inputs": [
        {
          "internalType": "string",
          "name": "_battleName",
          "type": "string"
        }
      ],
      "name": "getBattleMoves",
      "outputs": [
        {
          "internalType": "uint256",
          "name": "P1Move",
          "type": "uint256"
        },
        {
          "internalType": "uint256",
          "name": "P2Move",
          "type": "uint256"
        }
      ],
      "stateMutability": "view",
      "type": "function"
    },
    {
      "inputs": [
        {
          "internalType": "address",
          "name": "addr",
          "type": "address"
        }
      ],
      "name": "getPlayer",
      "outputs": [
        {
          "components": [
            {
              "internalType": "address",
              "name": "playerAddress",
              "type": "address"
            },
            {
              "internalType": "string",
              "name": "playerName",
              "type": "string"
            },
            {
              "internalType": "uint256",
              "name": "playerMana",
              "type": "uint256"
            },
            {
              "internalType": "uint256",
              "name": "playerHealth",
              "type": "uint256"
            },
            {
              "internalType": "bool",
              "name": "inBattle",
              "type": "bool"
            }
          ],
          "internalType": "struct MythicRealms.Player",
          "name": "",
          "type": "tuple"
        }
      ],
      "stateMutability": "view",
      "type": "function"
    },
    {
      "inputs": [
        {
          "internalType": "address",
          "name": "addr",
          "type": "address"
        },
        {
          "internalType": "uint256",
          "name": "id",
          "type": "uint256"
        }
      ],
      "name": "getPlayerTokenById",
      "outputs": [
        {
          "components": [
            {
              "internalType": "string",
              "name": "name",
              "type": "string"
            },
            {
              "internalType": "uint256",
              "name": "id",
              "type": "uint256"
            },
            {
              "internalType": "uint256",
              "name": "tokenHash",
              "type": "uint256"
            },
            {
              "internalType": "uint256",
              "name": "attackStrength",
              "type": "uint256"
            },
            {
              "internalType": "uint256",
              "name": "defenseStrength",
              "type": "uint256"
            }
          ],
          "internalType": "struct MythicRealms.GameToken",
          "name": "",
          "type": "tuple"
        }
      ],
      "stateMutability": "view",
      "type": "function"
    },
    {
      "inputs": [
        {
          "internalType": "address",
          "name": "addr",
          "type": "address"
        },
        {
          "internalType": "uint256",
          "name": "id",
          "type": "uint256"
        }
      ],
      "name": "getPlayerTokenHash",
      "outputs": [
        {
          "internalType": "uint256",
          "name": "",
          "type": "uint256"
        }
      ],
      "stateMutability": "view",
      "type": "function"
    },
    {
      "inputs": [
        {
          "internalType": "address",
          "name": "addr",
          "type": "address"
        }
      ],
      "name": "getPlayerTokens",
      "outputs": [
        {
          "components": [
            {
              "internalType": "string",
              "name": "name",
              "type": "string"
            },
            {
              "internalType": "uint256",
              "name": "id",
              "type": "uint256"
            },
            {
              "internalType": "uint256",
              "name": "tokenHash",
              "type": "uint256"
            },
            {
              "internalType": "uint256",
              "name": "attackStrength",
              "type": "uint256"
            },
            {
              "internalType": "uint256",
              "name": "defenseStrength",
              "type": "uint256"
            }
          ],
          "internalType": "struct MythicRealms.GameToken[]",
          "name": "",
          "type": "tuple[]"
        }
      ],
      "stateMutability": "view",
      "type": "function"
    },
    {
      "inputs": [
        {
          "internalType": "address",
          "name": "account",
          "type": "address"
        },
        {
          "internalType": "address",
          "name": "operator",
          "type": "address"
        }
      ],
      "name": "isApprovedForAll",
      "outputs": [
        {
          "internalType": "bool",
          "name": "",
          "type": "bool"
        }
      ],
      "stateMutability": "view",
      "type": "function"
    },
    {
      "inputs": [
        {
          "internalType": "string",
          "name": "_name",
          "type": "string"
        }
      ],
      "name": "isBattle",
      "outputs": [
        {
          "internalType": "bool",
          "name": "",
          "type": "bool"
        }
      ],
      "stateMutability": "view",
      "type": "function"
    },
    {
      "inputs": [
        {
          "internalType": "address",
          "name": "addr",
          "type": "address"
        }
      ],
      "name": "isPlayer",
      "outputs": [
        {
          "internalType": "bool",
          "name": "",
          "type": "bool"
        }
      ],
      "stateMutability": "view",
      "type": "function"
    },
    {
      "inputs": [
        {
          "internalType": "address",
          "name": "addr",
          "type": "address"
        }
      ],
      "name": "isPlayerToken",
      "outputs": [
        {
          "internalType": "bool",
          "name": "",
          "type": "bool"
        }
      ],
      "stateMutability": "view",
      "type": "function"
    },
    {
      "inputs": [
        {
          "internalType": "string",
          "name": "_name",
          "type": "string"
        },
        {
          "internalType": "uint256",
          "name": "playerTokenId",
          "type": "uint256"
        }
      ],
      "name": "joinBattle",
      "outputs": [
        {
          "components": [
            {
              "internalType": "enum MythicRealms.BattleStatus",
              "name": "battleStatus",
              "type": "uint8"
            },
            {
              "internalType": "string",
              "name": "name",
              "type": "string"
            },
            {
              "internalType": "address[2]",
              "name": "players",
              "type": "address[2]"
            },
            {
              "internalType": "uint256[2]",
              "name": "playerTokenIds",
              "type": "uint256[2]"
            },
            {
              "internalType": "uint256[2]",
              "name": "moves",
              "type": "uint256[2]"
            },
            {
              "internalType": "address",
              "name": "winner",
              "type": "address"
            }
          ],
          "internalType": "struct MythicRealms.Battle",
          "name": "",
          "type": "tuple"
        }
      ],
      "stateMutability": "nonpayable",
      "type": "function"
    },
    {
      "inputs": [],
      "name": "owner",
      "outputs": [
        {
          "internalType": "address",
          "name": "",
          "type": "address"
        }
      ],
      "stateMutability": "view",
      "type": "function"
    },
    {
      "inputs": [
        {
          "internalType": "address",
          "name": "",
          "type": "address"
        }
      ],
      "name": "playerInfo",
      "outputs": [
        {
          "internalType": "uint256",
          "name": "",
          "type": "uint256"
        }
      ],
      "stateMutability": "view",
      "type": "function"
    },
    {
      "inputs": [
        {
          "internalType": "address",
          "name": "",
          "type": "address"
        },
        {
          "internalType": "uint256",
          "name": "",
          "type": "uint256"
        }
      ],
      "name": "playerTokenInfo",
      "outputs": [
        {
          "internalType": "uint256",
          "name": "",
          "type": "uint256"
        }
      ],
      "stateMutability": "view",
      "type": "function"
    },
    {
      "inputs": [
        {
          "internalType": "uint256",
          "name": "",
          "type": "uint256"
        }
      ],
      "name": "players",
      "outputs": [
        {
          "internalType": "address",
          "name": "playerAddress",
          "type": "address"
        },
        {
          "internalType": "string",
          "name": "playerName",
          "type": "string"
        },
        {
          "internalType": "uint256",
          "name": "playerMana",
          "type": "uint256"
        },
        {
          "internalType": "uint256",
          "name": "playerHealth",
          "type": "uint256"
        },
        {
          "internalType": "bool",
          "name": "inBattle",
          "type": "bool"
        }
      ],
      "stateMutability": "view",
      "type": "function"
    },
    {
      "inputs": [
        {
          "internalType": "string",
          "name": "_battleName",
          "type": "string"
        }
      ],
      "name": "quitBattle",
      "outputs": [],
      "stateMutability": "nonpayable",
      "type": "function"
    },
    {
      "inputs": [
        {
          "internalType": "string",
          "name": "_name",
          "type": "string"
        }
      ],
      "name": "registerPlayer",
      "outputs": [],
      "stateMutability": "nonpayable",
      "type": "function"
    },
    {
      "inputs": [],
      "name": "renounceOwnership",
      "outputs": [],
      "stateMutability": "nonpayable",
      "type": "function"
    },
    {
      "inputs": [],
      "name": "resetData",
      "outputs": [],
      "stateMutability": "nonpayable",
      "type": "function"
    },
    {
      "inputs": [
        {
          "internalType": "address",
          "name": "from",
          "type": "address"
        },
        {
          "internalType": "address",
          "name": "to",
          "type": "address"
        },
        {
          "internalType": "uint256[]",
          "name": "ids",
          "type": "uint256[]"
        },
        {
          "internalType": "uint256[]",
          "name": "amounts",
          "type": "uint256[]"
        },
        {
          "internalType": "bytes",
          "name": "data",
          "type": "bytes"
        }
      ],
      "name": "safeBatchTransferFrom",
      "outputs": [],
      "stateMutability": "nonpayable",
      "type": "function"
    },
    {
      "inputs": [
        {
          "internalType": "address",
          "name": "from",
          "type": "address"
        },
        {
          "internalType": "address",
          "name": "to",
          "type": "address"
        },
        {
          "internalType": "uint256",
          "name": "id",
          "type": "uint256"
        },
        {
          "internalType": "uint256",
          "name": "amount",
          "type": "uint256"
        },
        {
          "internalType": "bytes",
          "name": "data",
          "type": "bytes"
        }
      ],
      "name": "safeTransferFrom",
      "outputs": [],
      "stateMutability": "nonpayable",
      "type": "function"
    },
    {
      "inputs": [
        {
          "internalType": "address",
          "name": "operator",
          "type": "address"
        },
        {
          "internalType": "bool",
          "name": "approved",
          "type": "bool"
        }
      ],
      "name": "setApprovalForAll",
      "outputs": [],
      "stateMutability": "nonpayable",
      "type": "function"
    },
    {
      "inputs": [
        {
          "internalType": "string",
          "name": "newuri",
          "type": "string"
        }
      ],
      "name": "setURI",
      "outputs": [],
      "stateMutability": "nonpayable",
      "type": "function"
    },
    {
      "inputs": [
        {
          "internalType": "bytes4",
          "name": "interfaceId",
          "type": "bytes4"
        }
      ],
      "name": "supportsInterface",
      "outputs": [
        {
          "internalType": "bool",
          "name": "",
          "type": "bool"
        }
      ],
      "stateMutability": "view",
      "type": "function"
    },
    {
      "inputs": [
        {
          "internalType": "uint256",
          "name": "tokenId",
          "type": "uint256"
        }
      ],
      "name": "tokenURI",
      "outputs": [
        {
          "internalType": "string",
          "name": "",
          "type": "string"
        }
      ],
      "stateMutability": "view",
      "type": "function"
    },
    {
      "inputs": [],
      "name": "totalSupply",
      "outputs": [
        {
          "internalType": "uint256",
          "name": "",
          "type": "uint256"
        }
      ],
      "stateMutability": "view",
      "type": "function"
    },
    {
      "inputs": [
        {
          "internalType": "uint256",
          "name": "id",
          "type": "uint256"
        }
      ],
      "name": "totalSupply",
      "outputs": [
        {
          "internalType": "uint256",
          "name": "",
          "type": "uint256"
        }
      ],
      "stateMutability": "view",
      "type": "function"
    },
    {
      "inputs": [
        {
          "internalType": "address",
          "name": "newOwner",
          "type": "address"
        }
      ],
      "name": "transferOwnership",
      "outputs": [],
      "stateMutability": "nonpayable",
      "type": "function"
    },
    {
      "inputs": [
        {
          "internalType": "string",
          "name": "_newName",
          "type": "string"
        }
      ],
      "name": "updatePlayerName",
      "outputs": [],
      "stateMutability": "nonpayable",
      "type": "function"
    },
    {
      "inputs": [
        {
          "internalType": "uint256",
          "name": "",
          "type": "uint256"
        }
      ],
      "name": "uri",
      "outputs": [
        {
          "internalType": "string",
          "name": "",
          "type": "string"
        }
      ],
      "stateMutability": "view",
      "type": "function"
    }
  ],
  "bytecode": "0x60806040523462000b15576200584e803803806200001d8162000b7a565b92833981019060208183031262000b15578051906001600160401b03821162000b15570181601f8201121562000b15578051906001600160401b038211620007695762000074601f8301601f191660200162000b7a565b928284526020838301011162000b155760005b82811062000aff57600083850160200152835184906001600160401b0381116200076957600254600181811c9116801562000af4575b60208210146200074857601f811162000ab2575b50806020601f821160011462000a3a5760009162000a2e575b508160011b916000199060031b1c1916176002555b60038054336001600160a01b0319821681179092556040516001600160a01b03909116907f8be0079c531659141344cd1fd0a4f28419497f9722a3daafe3b4186f6b6457e090600090a36001600581905560085580516001600160401b0381116200076957600654600181811c9116801562000a23575b60208210146200074857601f8111620009d0575b506020601f82116001146200096357819260009262000957575b50508160011b916000199060031b1c1916176006555b620001c462000b1a565b620001ce62000b5a565b60008152815260006020820152600060408201526000606082015260006080820152600d546801000000000000000081101562000769576001810180600d558110156200079557600d6000528151805190927fd7b6990105719101dabeb77144f2a3385c8033acd3af97e9423a695e81ad1eb5916001600160401b038111620007695760058402830154600181811c911680156200094c575b60208210146200074857601f811162000911575b506020601f8211600114620008925791816080926005946004979860009262000886575b50508160011b916000199060031b1c1916178387028501555b60208101519590920292909201600181019490945560408101516002850155606081015160038501550151910155620002f062000b1a565b60008152620002fe62000b5a565b600081526020820152600060408201526000606082015260006080820152600c54906801000000000000000082101562000769576001820180600c558210156200079557600c6000528051600583027fdf6966c971051c3d54ec59162606531493a51404a002842f56009d7e5cf4a8c790810180546001600160a01b0319166001600160a01b039390931692909217909155602082015180519093906001600160401b038111620007695760016005830284010154600181811c911680156200087b575b60208210146200074857601f81116200083d575b506020601f8211600114620007b75791816005926004959460809798600092620007ab575b50508160011b916000199060031b1c1916176001838302850101555b60408601516002838302850101556060860151600383830285010155020101910151151560ff801983541691161790556200045162000b3a565b60008152600060208201526200046662000b3a565b60008152600060208201526200047b62000b3a565b60008082526020820152604051929091906001600160401b0360c0850190811190851117620007695760c0840160405260008452620004b962000b5a565b600081526020850152604084015260608301526080820152600060a0820152600e546801000000000000000081101562000769576001810180600e558110156200079557600e60005281517fbb7b4a454dc3493923482f07822329ed19e8244eff582cc204f8554c3620c3fd919060038110156200077f57600982028301805460ff191660ff9290921691909117815560208401518051600190920191906001600160401b0382116200076957825490600182811c921680156200075e575b6020831014620007485781601f84931162000706575b50602090601f83116001146200069b576000926200068f575b50508160011b916000199060031b1c19161790555b604083015160005b6002811062000669575050606083015160005b600281106200064c575050608083015160005b600281106200062f5760a085015160098402850160080180546001600160a01b0319166001600160a01b0392909216919091179055604051614c74908162000bba8239f35b6001906020835193019260068260098702880101015501620005ea565b6001906020835193019260048260098702880101015501620005d7565b81516001600160a01b0316600260098502860183010155602090910190600101620005c4565b015190508680620005a7565b6000858152602081209350601f198516905b818110620006ed5750908460019594939210620006d3575b505050811b019055620005bc565b015160001960f88460031b161c19169055868080620006c5565b92936020600181928786015181550195019301620006ad565b6200073690856000526020600020601f850160051c810191602086106200073d575b601f0160051c019062000ba0565b876200058e565b909150819062000728565b634e487b7160e01b600052602260045260246000fd5b91607f169162000578565b634e487b7160e01b600052604160045260246000fd5b634e487b7160e01b600052602160045260246000fd5b634e487b7160e01b600052603260045260246000fd5b015190508880620003fb565b60016005840285010160005260206000209560005b601f198416811062000824575082608096976004969593600193600596601f198116106200080a575b505050811b0160018383028501015562000417565b015160001960f88460031b161c19169055888080620007f5565b82820151885560019097019660209283019201620007cc565b62000874906001600585028601016000526020600020601f840160051c810191602085106200073d57601f0160051c019062000ba0565b85620003d6565b90607f1690620003c2565b0151905088806200029f565b60058502840160005260206000209560005b601f1984168110620008f85750826004969760059593600193608096601f19811610620008de575b505050811b01838702850155620002b8565b015160001960f88460031b161c19169055888080620008cc565b82820151885560019097019660209283019201620008a4565b62000945906005860285016000526020600020601f840160051c810191602085106200073d57601f0160051c019062000ba0565b856200027b565b90607f169062000267565b015190508280620001a4565b600660005260206000209060005b601f1984168110620009b7575060019383601f198116106200099d575b505050811b01600655620001ba565b015160001960f88460031b161c191690558280806200098e565b9091602060018192858801518155019301910162000971565b600660005262000a1c907ff652222313e28459528d920b65115c16c04f3efc82aaedc97be59f3f377c0d3f601f840160051c810191602085106200073d57601f0160051c019062000ba0565b826200018a565b90607f169062000176565b905082015183620000ea565b600260009081526000805160206200582e8339815191529250601f198416905b81811062000a995750908360019493921062000a7f575b5050811b01600255620000ff565b84015160001960f88460031b161c19169055838062000a71565b9192602060018192868901518155019401920162000a5a565b600260005262000aed906000805160206200582e833981519152601f840160051c810191602085106200073d57601f0160051c019062000ba0565b82620000d1565b90607f1690620000bd565b8060208092840101518282870101520162000087565b600080fd5b6040519060a082016001600160401b038111838210176200076957604052565b60408051919082016001600160401b038111838210176200076957604052565b60405190602082016001600160401b038111838210176200076957604052565b6040519190601f01601f191682016001600160401b038111838210176200076957604052565b81811062000bac575050565b6000815560010162000ba056fe6080604052600436101561001257600080fd5b60003560e01c8062fdd58e14612dfc57806301ffc9a714612d8e57806302fe530514612c6757806309c95e1014612c445780630daea2cd14612c285780630e89341c14612b775780631107ae3d14612b3d57806316801d1714612af357806318160ddd14612ad55780632eb2c2d6146126945780633835e2b514612638578063478c4e0e146122645780634b1146911461222a5780634e1273f41461208c5780634f558e791461205e5780635c12cd4b14611fe95780635c93fc3d14611f005780635d79c38c14611d81578063606d2e9614611cfd5780636c0360eb14611c1b578063715018a614611bb95780638bdb3b2f14611a175780638da5cb5b146119ee5780639592e20d146119bf578063996d7bea146118ec5780639b09cc871461189b5780639ec40aa31461167a578063a22cb4651461158d578063a42bdf6e14611535578063b3446f8514611437578063ba27495614610edc578063bd85b03914610eb0578063bf034b6914610e08578063bf103a4d14610ddb578063c1fa081e14610d9f578063c87b56dd14610c97578063e985e9c514610c41578063f242432a14610830578063f2fde38b14610764578063f71d96cb146106cb578063f89a854c146103dd5763febda2e8146101e957600080fd5b346103d8576020806003193601126103d8576001600160401b03906004358281116103d85761021c903690600401612ef7565b9161022633613627565b1561039b573360005260098252604060002054600c5481101561035f5761024c9061328b565b50916001809301938051928311610349576102678554613172565b601f811161030e575b5081601f84116001146102ab57509282939183926000946102a0575b50501b916000199060031b1c19161790555b005b01519250388061028c565b919083601f1981168760005284600020946000905b888383106102f457505050106102db575b505050811b019055005b015160001960f88460031b161c191690553880806102d1565b8587015188559096019594850194879350908101906102c0565b610339908660005283600020601f860160051c81019185871061033f575b601f0160051c0190613610565b38610270565b909150819061032c565b634e487b7160e01b600052604160045260246000fd5b60405162461bcd60e51b8152600481018490526014602482015273092dcecc2d8d2c840e0d8c2f2cae440d2dcc8caf60631b6044820152606490fd5b60405162461bcd60e51b8152600481018390526015602482015274141b185e595c881b9bdd081c9959da5cdd195c9959605a1b6044820152606490fd5b600080fd5b346103d8576103eb36613242565b906103f4613e6d565b506103fe81613e44565b1561068e5761042e604051828180945161041e8160209788809601612f3e565b8101600b8152030190205461313d565b50805460ff8116600381101561067857610639576002820180546001600160a01b03929083163381146105ea576080610466336137e1565b01516105b157610475336138cd565b1561055a5786849161049361048e610541999a336141ad565b613f43565b600160ff1980951617875560038701913360018060a01b031984541617835560058801556000526009885260046104ce60406000205461328b565b5001600184825416179055541660005260098652600160046104f460406000205461328b565b5001918254161790555416604051908482527f024187b16c217a79f8d8e6252b542ec6e278fa91304acd9cfd866f2bbf00bd08339280610539888201600188016131ac565b0390a3613b4f565b90610556604051928284938452830190612fbb565b0390f35b60405162461bcd60e51b815260048101879052602960248201527f596f75206d7573742068617665206120746f6b656e20746f206a6f696e2074686044820152686520626174746c652160b81b6064820152608490fd5b60405162461bcd60e51b8152600481018790526011602482015270416c726561647920696e20626174746c6560781b6044820152606490fd5b60405162461bcd60e51b815260048101879052602160248201527f4f6e6c7920706c617965722074776f2063616e206a6f696e206120626174746c6044820152606560f81b6064820152608490fd5b60405162461bcd60e51b8152600481018490526017602482015276426174746c6520616c726561647920737461727465642160481b6044820152606490fd5b634e487b7160e01b600052602160045260246000fd5b60405162461bcd60e51b815260206004820152601560248201527410985d1d1b1948191bd95cc81b9bdd08195e1a5cdd605a1b6044820152606490fd5b346103d85760203660031901126103d857600435600c548110156103d857600c6000526005602060002091020160018060a01b038154166040519161071e8361071781600185016131ac565b0384612ebb565b60028101549060ff60046003830154920154169061074e604051958695865260a0602087015260a0860190612f61565b9260408501526060840152151560808301520390f35b346103d85760203660031901126103d85761077d612e23565b6107856132c9565b6001600160a01b039081169081156107dc57600380546001600160a01b03198116841790915560405160009390929091167f8be0079c531659141344cd1fd0a4f28419497f9722a3daafe3b4186f6b6457e08484a3f35b60405162461bcd60e51b815260206004820152602660248201527f4f776e61626c653a206e6577206f776e657220697320746865207a65726f206160448201526564647265737360d01b6064820152608490fd5b346103d85760a03660031901126103d857610849612e23565b610851612e39565b90608480356001600160401b0381116103d857610872903690600401612ef7565b6001600160a01b03919083831633148015610c16575b610891906133c9565b8285161561089f811561342d565b6108aa6044356135eb565b6108b56064356135eb565b9185871615610bb6575b610af6575b505060443560005260209460008652604060002084861660005286526040600020546108f4606435821015613487565b604435600052600087526040600020858716600052875260643590036040600020556044356000526000865260406000208482166000528652604060002061093f60643582546134e6565b905560405160443581526064358782015284821690858716907fc3d58168c5ae7397731d063d5bbf3d657854427343f4c083240f7aacaa2d0f6260403392a4803b61098657005b60a060006109d0958895604051978896879586938563f23a6e6160e01b9d8e87523360048801521660248601526044356044860152606435606486015284015260a4830190612f61565b0393165af160009181610ac7575b50610a9d5750506001906109f061355c565b6308c379a014610a68575b50610a0257005b60405162461bcd60e51b815260206004820152603460248201527f455243313135353a207472616e7366657220746f206e6f6e20455243313135356044820152732932b1b2b4bb32b91034b6b83632b6b2b73a32b960611b6064820152608490fd5b0390fd5b610a7061357a565b9081610a7c57506109fb565b610a6460405192839262461bcd60e51b845260048401526024830190612f61565b6001600160e01b03191614905061029e5760405162461bcd60e51b815280610a6460048201613513565b610ae8919250843d8611610aef575b610ae08183612ebb565b8101906134f3565b90846109de565b503d610ad6565b92959194909360005b8451811015610ba757610b1281866133b5565b5190610b1e81886133b5565b51826000526004602052604060002054818110610b5257610b4d936000526004602052036040600020556133a6565b610aff565b60405162461bcd60e51b815260206004820152602860248201527f455243313135353a206275726e20616d6f756e74206578636565647320746f74604482015267616c537570706c7960c01b60648201528b90fd5b509350939094915085806108c4565b959260009794919592975b8651811015610c085780610bd8610c03928b6133b5565b51610be3828a6133b5565b516000526004602052610bfc60406000209182546134e6565b90556133a6565b610bc1565b5092959691949093966108bf565b50828416600052600160205260406000203360005260205261089160ff604060002054169050610888565b346103d85760403660031901126103d857610c5a612e23565b610c62612e39565b9060018060a01b03809116600052600160205260406000209116600052602052602060ff604060002054166040519015158152f35b346103d8576020806003193601126103d857610cb4600435614b40565b90604051918260009160065492610cca84613172565b600194868682169182600014610d7a575050600114610d38575b509264173539b7b760d91b6006939285602f60f81b610d249752610d10825180938a8785019101612f3e565b019182015203601919810185520183612ebb565b610556604051928284938452830190612f61565b8591506006600052816000206000905b828210610d6257505083010164173539b7b760d91b610ce4565b80548983018501528895508793909101908601610d48565b60ff1916818701528215159092028501909101915064173539b7b760d91b9050610ce4565b346103d85760403660031901126103d857610556610dc7610dbe612e23565b60243590613c9b565b6040519182916020835260208301906130ff565b346103d85760203660031901126103d8576020610dfe610df9612e23565b6138cd565b6040519015158152f35b346103d85760203660031901126103d857600435600d548110156103d857600d600052604051610e97916005027fd7b6990105719101dabeb77144f2a3385c8033acd3af97e9423a695e81ad1eb501610e6c82610e6581846131ac565b0383612ebb565b600181015490600281015490600460038201549101549160405195869560a0875260a0870190612f61565b9360208601526040850152606084015260808301520390f35b346103d85760203660031901126103d85760043560005260046020526020604060002054604051908152f35b346103d85760403660031901126103d85760043560ff908181168091036103d857602480356001600160401b0381116103d857610f1d903690600401612ef7565b610f2681613eca565b9384519060038210156114225760018092036113ae57855160038110156113995760021461135a576040860180519660018060a01b039788808251163314918215611349575b5050156113055760800151815151881633036112ff5760005b600284821610156112ea5760051b611fe01601516112a65751518616330361129f578060005b1690828614808015611295575b15611251571561124b5760036040610fcf336137e1565b015110155b156111fc5760405195845192610ff76020988981818a019761041e81838b612f3e565b5060028210156111e7570160060155608061101185613eca565b018051516111e0578160005b16600203908282116111cb57518701516111c357818060005b169116038181116111ae5716918083036111a25761106190915b604051809281928751928391612f3e565b8101039020901515907f54b82b77e7ae55a8e6c9e89deba70c7191dea2a3b08ae647b380e9f981d6a0f86000604051a31561109857005b6110a190613eca565b9260408401519083818351163314928315611193575b5050501561113c5760808301518281511515918261112f575b5050156110e257505061029e90614207565b9060216084926040519262461bcd60e51b845260048401528201527f506c6179657273207374696c6c206e65656420746f206d616b652061206d6f766044820152606560f81b6064820152fd5b01511515905082856110d0565b90602b6084926040519262461bcd60e51b845260048401528201527f4f6e6c7920706c617965727320696e207468697320626174746c652063616e2060448201526a6d616b652061206d6f766560a81b6064820152fd5b015116331490508483816110b7565b50611061600091611050565b85634e487b7160e01b60005260116004526000fd5b818085611036565b86634e487b7160e01b60005260116004526000fd5b818461101d565b87634e487b7160e01b60005260326004526000fd5b60405162461bcd60e51b8152602060048201526022818701527f4d616e61206e6f742073756666696369656e7420666f722061747461636b696e604482015261672160f01b6064820152608490fd5b82610fd4565b60405162461bcd60e51b815260206004820152601f818801527f43686f6963652073686f756c64206265206569746865722031206f72203221006044820152606490fd5b5060028714610fb8565b8082610fab565b60405162461bcd60e51b815260206004820152601d818701527f596f75206861766520616c7265616479206d6164652061206d6f7665210000006044820152606490fd5b86634e487b7160e01b60005260326004526000fd5b83610f85565b60405162461bcd60e51b815260206004820152601a818801527f596f7520617265206e6f7420696e207468697320626174746c650000000000006044820152606490fd5b60209192500151163314888a610f6c565b60405162461bcd60e51b8152602060048201526018818601527710985d1d1b19481a185cc8185b1c9958591e48195b99195960421b6044820152606490fd5b84634e487b7160e01b60005260216004526000fd5b60405162461bcd60e51b8152602060048201526041818601527f426174746c65206e6f7420737461727465642e20506c656173652074656c6c2060448201527f616e6f7468657220706c6179657220746f206a6f696e2074686520626174746c6064820152606560f81b608482015260a490fd5b83634e487b7160e01b60005260216004526000fd5b346103d8576020806003193601126103d8576004356001600160401b0381116103d857611468903690600401612ef7565b61147133613627565b6114f4576114ef7f81ef79d1cda814a60c0fc60792e648a06d9c6bae67176346d1cc8b63030bfccd91600c546114ce6040516114ac81612e4f565b3381528387820152600a60408201526019606082015260006080820152613644565b33600052600985526040600020556040519182918583523395830190612f61565b0390a2005b60405162461bcd60e51b8152600481018390526019602482015278141b185e595c88185b1c9958591e481c9959da5cdd195c9959603a1b6044820152606490fd5b346103d85760403660031901126103d85761154e612e23565b6001600160a01b03166000908152600a60205260409020805460243591908210156103d85760209161157f91613273565b90546040519160031b1c8152f35b346103d85760403660031901126103d8576115a6612e23565b60243590811515908183036103d8576001600160a01b031691338314611623576115f59033600052600160205260406000208460005260205260406000209060ff801983541691151516179055565b6040519081527f17307eab39ab6107e8899845ad3d59bd9653f200f220920489ca2b5937696c3160203392a3005b60405162461bcd60e51b815260206004820152602960248201527f455243313135353a2073657474696e6720617070726f76616c20737461747573604482015268103337b91039b2b63360b91b6064820152608490fd5b346103d8576020806003193601126103d8576001600160401b036004358181116103d8576116ac903690600401612ef7565b60806116b7336137e1565b015161185e576116ce6116c933613627565b6138ea565b6116d7336138cd565b611819576116e3613936565b506116ed33613abe565b9081600a0392600a841161180357604051918583014281523360601b60408501526034845260608401928484109084111761034957601e9083604052845190200690600182018092116118035761176993869260e0926008549061175087612e4f565b8652608083015260a08201528560c0820152015261396f565b33600052600a83526040600020600854908054600160401b8110156103495761179791600182018155613273565b819291549060031b600019811b9283911b169119161790556117ba6008546133a6565b92836008556117ca6007546133a6565b60075560405193845283015260408201527fca8ab07e9ed17d119729fc652dd24df9d8430ca862dda4631925b5b4b99da36260603392a2005b634e487b7160e01b600052601160045260246000fd5b60405162461bcd60e51b815260048101849052601a60248201527f506c6179657220616c726561647920686173206120746f6b656e0000000000006044820152606490fd5b60405162461bcd60e51b8152600481018490526015602482015274506c6179657220697320696e206120626174746c6560581b6044820152606490fd5b346103d85760203660031901126103d8576004356001600160401b0381116103d85760806118d76118d26040933690600401612ef7565b613eca565b01516020815191015182519182526020820152f35b346103d85760203660031901126103d8576004356001600160401b0381116103d8576118d261191f913690600401612ef7565b6040810190815160018060a01b03908181511633149081156119af575b501561196a57825151811633810361195e5750602061029e93510151166149ed565b905061029e92506149ed565b60405162461bcd60e51b815260206004820152601b60248201527f596f7520617265206e6f7420696e207468697320626174746c652100000000006044820152606490fd5b602001518216331490508461193c565b346103d85760403660031901126103d85760206119e66119dd612e23565b60243590613d99565b604051908152f35b346103d85760003660031901126103d8576003546040516001600160a01b039091168152602090f35b346103d857611a2536613242565b611a2d613e6d565b50611a3a6116c933613627565b611a43336138cd565b15611b6157611a5182613e44565b611b2357611a6261048e82336141ad565b60405191611a6f83612e6a565b33835260209160008385015260405190611a8882612e6a565b815260008382015260405190611a9d82612e6a565b6000825260008483015260405194611ab486612e85565b600086528385870152604086015260608501526080840152600060a0840152611adc83614184565b600e546000198101919082116118035782611b04918160405193828580945193849201612f3e565b8101600b81520301902055610556604051928284938452830190612fbb565b60405162461bcd60e51b8152602060048201526016602482015275426174746c6520616c7265616479206578697374732160501b6044820152606490fd5b60405162461bcd60e51b815260206004820152602a60248201527f596f75206d7573742068617665206120746f6b656e20746f20656e7465722074604482015269686520626174746c652160b01b6064820152608490fd5b346103d85760003660031901126103d857611bd26132c9565b600380546001600160a01b0319811690915560405160009182906001600160a01b03167f8be0079c531659141344cd1fd0a4f28419497f9722a3daafe3b4186f6b6457e08284a3f35b346103d85760003660031901126103d857604051600090600654611c3e81613172565b808352600191808316908115611cd55750600114611c7b575b61055683611c6781870382612ebb565b604051918291602083526020830190612f61565b6006600090815260209450917ff652222313e28459528d920b65115c16c04f3efc82aaedc97be59f3f377c0d3f5b828410611cc257505050810190910190611c6781611c57565b8054858501870152928501928101611ca9565b6105569550611c6793506020915091849260ff191682840152151560051b8201019350611c57565b346103d85760203660031901126103d857600435600e548110156103d857611d6690600e6000526009602060002091020160ff81541690611d7760405191611d4c8361071781600185016131ac565b600860018060a01b03910154169160405194858095612f86565b606060208501526060840190612f61565b9060408301520390f35b346103d8576020806003193601126103d857611d9b612e23565b611dac611da7826138cd565b613c08565b60018060a01b0316600052600a81526040600020604051808284829454938481520190600052846000209260005b86828210611eea5784611def81860382612ebb565b805190611dfb82613056565b91611e096040519384612ebb565b808352611e18601f1991613056565b018360005b828110611ed45750505060005b8151811015611e735780611e53611e4d611e47611e6e94866133b5565b516132aa565b50613c50565b611e5d82866133b5565b52611e6881856133b5565b506133a6565b611e2a565b50506040519082820192808352815180945260408301938160408260051b8601019301916000955b828710611ea85785850386f35b909192938280611ec4600193603f198a820301865288516130ff565b9601920196019592919092611e9b565b611edc613936565b828287010152018490611e1d565b8554845260019586019587955093019201611dda565b346103d85760003660031901126103d857600e54611f1d81613056565b90611f2b6040519283612ebb565b808252600e6000908152602091828401917fbb7b4a454dc3493923482f07822329ed19e8244eff582cc204f8554c3620c3fd835b838310611fc65750505050604051918083019381845251809452604083019360408160051b85010192916000955b828710611f9a5785850386f35b909192938280611fb6600193603f198a82030186528851612fbb565b9601920196019592919092611f8d565b600986600192611fd8859a999a613b4f565b815201920192019190959495611f5f565b346103d85760203660031901126103d85761200a612005612e23565b6137e1565b60405180916020825260018060a01b038151166020830152608061203d602083015160a0604086015260c0850190612f61565b91604081015160608501526060810151828501520151151560a08301520390f35b346103d85760203660031901126103d857600435600052600460205260206040600020541515604051908152f35b346103d85760403660031901126103d8576004356001600160401b038082116103d857366023830112156103d8578160040135906120c982613056565b926120d76040519485612ebb565b82845260209260248486019160051b830101913683116103d857602401905b82821061220b575050506024359081116103d85761211890369060040161306d565b82518151036121b45782519261212d84613056565b9361213b6040519586612ebb565b80855261214a601f1991613056565b01368486013760005b815181101561219d57612198906121886001600160a01b0361217583866133b5565b511661218183876133b5565b5190613321565b61219282886133b5565b526133a6565b612153565b5050506105566040519282849384528301906130cb565b60405162461bcd60e51b815260048101839052602960248201527f455243313135353a206163636f756e747320616e6420696473206c656e677468604482015268040dad2e6dac2e8c6d60bb1b6064820152608490fd5b81356001600160a01b03811681036103d85781529084019084016120f6565b346103d85760203660031901126103d8576001600160a01b0361224b612e23565b1660005260096020526020604060002054604051908152f35b346103d85760003660031901126103d85761227d6132c9565b600c805460008255806125e6575b50600d546000600d5580612577575b50600e90815460008355806124e3575b5060005b815481101561231457806122c46122f49261328b565b50546001600160a01b03166000908152600a60209081526040822080549281559190816122f9575b5050506133a6565b6122ae565b61230c9260005260002090810190613610565b8480806122ec565b8260005b81548110156123d35761232a8161313d565b506001809101906040519160009181549161234483613172565b928281169081156123b75750600114612379575b505050816020612374949383600b6000955203019020556133a6565b612318565b9091925060005260209081600020906000915b8483106123a6575050509082019050816020612374612358565b80548684015291830191810161238c565b60ff191686525050508015150282019050816020612374612358565b600060075561029e6040516123e781612e4f565b6040516123f381612ea0565b60008152815261241f60209160008382015260006040820152600060608201526000608082015261396f565b61246060405161242e81612e4f565b6000815260405161243e81612ea0565b6000815283820152600060408201526000606082015260006080820152613644565b60405161246c81612e6a565b6000815260008282015260405161248281612e6a565b600081526000838201526040519161249983612e6a565b60008352600084840152604051936124b085612e85565b60008552604051906124c182612ea0565b60008252850152604084015260608301526080820152600060a0820152614184565b60017f1c71c71c71c71c71c71c71c71c71c71c71c71c71c71c71c71c71c71c71c71c7182118116611803578360005260206000209060099283028201915b828110612530575050506122aa565b806000859255612541838201614af4565b6000600482016125548160028501613610565b612562600684018092613610565b612570600884018092613610565b5501612521565b61258090613f8b565b600d6000527fd7b6990105719101dabeb77144f2a3385c8033acd3af97e9423a695e81ad1eb5908101905b8181106125b8575061229a565b806125c4600592614af4565b60006001820155600060028201556000600382015560006004820155016125ab565b6125ef90613f8b565b816000526020600020908101905b81811061260a575061228b565b8060006005925561261d60018201614af4565b600060028201556000600382015560006004820155016125fd565b346103d85760203660031901126103d8576004356001600160401b0381116103d857612681602061266e81933690600401612ef7565b8160405193828580945193849201612f3e565b8101600b81520301902054604051908152f35b346103d85760031960a0368201126103d8576126ae612e23565b906126b7612e39565b906001600160401b03604480358281116103d8576126d990369060040161306d565b9060649081358481116103d8576126f490369060040161306d565b9460849485359081116103d85761270f903690600401612ef7565b6001600160a01b0398891698909190338a148015612aac575b612731906133c9565b8551885103612a59578816958615612749811561342d565b8a15612a16575b612951575b60005b86518110156127e8578061276f6127e392896133b5565b518c61277b838d6133b5565b51918060005282602092600084526040600020816000528452604060002054906127a783831015613487565b8360005260008552604060002090600052845203604060002055600052600081526040600020908b60005252610bfc60406000209182546134e6565b612758565b5090919293968998878a604051604081527f4a39dc06d4c0dbc64b70af90fd698a233a518aa5d07e595d983b8c0526c8f7fb612827604083018c6130cb565b9180830360208201528061283c3394896130cb565b0390a43b61284657005b604051978896879663bc197c8160e01b9b8c89523360048a01526024890152870160a0905260a48701612878916130cb565b9084878303019087015261288b916130cb565b91848303019084015261289d91612f61565b03815a602094600091f160009181612931575b5061290957505060016128c161355c565b6308c379a0146128d2575b610a0257005b6128da61357a565b806128e557506128cc565b60405162461bcd60e51b815260206004820152908190610a64906024830190612f61565b6001600160e01b0319161461029e5760405162461bcd60e51b815280610a6460048201613513565b61294a91925060203d8111610aef57610ae08183612ebb565b90836128b0565b96949398929590979160005b8551811015612a075761297081876133b5565b5161297b82896133b5565b519080600052602060048152604060002054918383106129b4576129af9493929160049160005252036040600020556133a6565b61295d565b508b9067616c537570706c7960c01b8f7f455243313135353a206275726e20616d6f756e74206578636565647320746f748e6040519462461bcd60e51b8652600486015260286024860152840152820152fd5b50919790959298939496612755565b98959996949392919060005b8b51811015612a4a57808c610be382612a3e612a45958f6133b5565b51926133b5565b612a22565b50909192939496999598612750565b60405162461bcd60e51b815260206004820152602860248201527f455243313135353a2069647320616e6420616d6f756e7473206c656e6774682081860152670dad2e6dac2e8c6d60c31b818701528790fd5b5089600052600160205260406000203360005260205261273160ff604060002054169050612728565b346103d85760003660031901126103d8576020600754604051908152f35b346103d85760203660031901126103d8576004356001600160401b0381116103d857612b296118d2610556923690600401612ef7565b604051918291602083526020830190612fbb565b346103d85760203660031901126103d8576004356001600160401b0381116103d857610dfe612b726020923690600401612ef7565b613e44565b346103d8576020806003193601126103d8576040519060008260025491612b9d83613172565b92838352600190858282169182600014612c08575050600114612bc8575b50610d2492500383612ebb565b849150600260005281600020906000915b858310612bf0575050610d24935082010185612bbb565b80548389018501528794508693909201918101612bd9565b60ff191685820152610d2495151560051b8501019250879150612bbb9050565b346103d85760003660031901126103d8576020604051600a8152f35b346103d85760203660031901126103d8576020610dfe612c62612e23565b613627565b346103d8576020806003193601126103d8576001600160401b036004358181116103d857612c99903690600401612ef7565b91612ca26132c9565b825191821161034957612cb6600254613172565b601f8111612d5d575b5080601f8311600114612cf957508192600092612cee575b50508160011b916000199060031b1c191617600255005b015190508280612cd7565b90601f19831693600260005282600020926000905b868210612d455750508360019510612d2c575b505050811b01600255005b015160001960f88460031b161c19169055828080612d21565b80600185968294968601518155019501930190612d0e565b612d8890600260005282600020601f850160051c81019184861061033f57601f0160051c0190613610565b83612cbf565b346103d85760203660031901126103d85760043563ffffffff60e01b81168091036103d857602090636cdb3d1360e11b8114908115612deb575b8115612dda575b506040519015158152f35b6301ffc9a760e01b14905082612dcf565b6303a24d0760e21b81149150612dc8565b346103d85760403660031901126103d85760206119e6612e1a612e23565b60243590613321565b600435906001600160a01b03821682036103d857565b602435906001600160a01b03821682036103d857565b60a081019081106001600160401b0382111761034957604052565b604081019081106001600160401b0382111761034957604052565b60c081019081106001600160401b0382111761034957604052565b602081019081106001600160401b0382111761034957604052565b90601f801991011681019081106001600160401b0382111761034957604052565b6001600160401b03811161034957601f01601f191660200190565b81601f820112156103d857803590612f0e82612edc565b92612f1c6040519485612ebb565b828452602083830101116103d857816000926020809301838601378301015290565b60005b838110612f515750506000910152565b8181015183820152602001612f41565b90602091612f7a81518092818552858086019101612f3e565b601f01601f1916010190565b9060038210156106785752565b6000915b60028310612fa457505050565b600190825181526020809101920192019190612f97565b90612fc7818351612f86565b602091612fe1838201516101208086860152840190612f61565b92604082015190604084016000905b6002821061303757505050508061301260606101009301516080850190612f93565b613024608082015160c0850190612f93565b60a001516001600160a01b031691015290565b83516001600160a01b0316815292820192600191909101908201612ff0565b6001600160401b0381116103495760051b60200190565b81601f820112156103d85780359161308483613056565b926130926040519485612ebb565b808452602092838086019260051b8201019283116103d8578301905b8282106130bc575050505090565b813581529083019083016130ae565b90815180825260208080930193019160005b8281106130eb575050505090565b8351855293810193928101926001016130dd565b90608080613116845160a0855260a0850190612f61565b93602081015160208501526040810151604085015260608101516060850152015191015290565b600e5481101561315c57600e6000526009602060002091020190600090565b634e487b7160e01b600052603260045260246000fd5b90600182811c921680156131a2575b602083101461318c57565b634e487b7160e01b600052602260045260246000fd5b91607f1691613181565b90600092918054916131bd83613172565b91828252600193848116908160001461321f57506001146131df575b50505050565b90919394506000526020928360002092846000945b83861061320b5750505050010190388080806131d9565b8054858701830152940193859082016131f4565b9294505050602093945060ff191683830152151560051b010190388080806131d9565b60406003198201126103d857600435906001600160401b0382116103d85761326c91600401612ef7565b9060243590565b805482101561315c5760005260206000200190600090565b600c5481101561315c57600c6000526005602060002091020190600090565b600d5481101561315c57600d6000526005602060002091020190600090565b6003546001600160a01b031633036132dd57565b606460405162461bcd60e51b815260206004820152602060248201527f4f776e61626c653a2063616c6c6572206973206e6f7420746865206f776e65726044820152fd5b6001600160a01b031690811561334e57600052600060205260406000209060005260205260406000205490565b60405162461bcd60e51b815260206004820152602a60248201527f455243313135353a2061646472657373207a65726f206973206e6f742061207660448201526930b634b21037bbb732b960b11b6064820152608490fd5b60001981146118035760010190565b805182101561315c5760209160051b010190565b156133d057565b60405162461bcd60e51b815260206004820152602f60248201527f455243313135353a2063616c6c6572206973206e6f7420746f6b656e206f776e60448201526e195c881b9bdc88185c1c1c9bdd9959608a1b6064820152608490fd5b1561343457565b60405162461bcd60e51b815260206004820152602560248201527f455243313135353a207472616e7366657220746f20746865207a65726f206164604482015264647265737360d81b6064820152608490fd5b1561348e57565b60405162461bcd60e51b815260206004820152602a60248201527f455243313135353a20696e73756666696369656e742062616c616e636520666f60448201526939103a3930b739b332b960b11b6064820152608490fd5b9190820180921161180357565b908160209103126103d857516001600160e01b0319811681036103d85790565b60809060208152602860208201527f455243313135353a204552433131353552656365697665722072656a656374656040820152676420746f6b656e7360c01b60608201520190565b60009060033d1161356957565b905060046000803e60005160e01c90565b600060443d106135d757604051600319913d83016004833e81516001600160401b03918282113d6024840111176135da578184019485519384116135e2573d850101602084870101116135da57506135d792910160200190612ebb565b90565b949350505050565b50949350505050565b604051906135f882612e6a565b6001825260208201602036823782511561315c575290565b81811061361b575050565b60008155600101613610565b6001600160a01b0316600090815260096020526040902054151590565b600c5490600160401b82101561034957613665600192838101600c5561328b565b9190916137cb57805182546001600160a01b0319166001600160a01b039190911617825560208082015180519094808501926001600160401b038311610349576136af8454613172565b601f811161379b575b5080601f84116001146137275750918080608095936004979561371a9a60009461371c575b50501b916000199060031b1c19161790555b60408101516002850155606081015160038501550151151591019060ff801983541691151516179055565b565b0151925038806136dd565b9193949596601f1984168660005283600020936000905b8282106137845750509260809592859261371a9a9996600499961061376b575b505050811b0190556136ef565b015160001960f88460031b161c1916905538808061375e565b80888697829497870151815501960194019061373e565b6137c5908560005282600020601f860160051c81019184871061033f57601f0160051c0190613610565b386136b8565b634e487b7160e01b600052600060045260246000fd5b6040608081516137f081612e4f565b6000918183809352606060208201528285820152826060820152015261381583613627565b15613891576001600160a01b03928316815260096020528190205460ff9160049161383f9061328b565b509080519461384d86612e4f565b8254168552805161386c8161386581600187016131ac565b0382612ebb565b6020860152600282015490850152600381015460608501520154161515608082015290565b815162461bcd60e51b8152602060048201526015602482015274506c6179657220646f65736e27742065786973742160581b6044820152606490fd5b6001600160a01b03166000908152600a6020526040902054151590565b156138f157565b60405162461bcd60e51b815260206004820152601c60248201527f506c6561736520526567697374657220506c61796572204669727374000000006044820152606490fd5b6040519061394382612e4f565b6000608083606081528260208201528260408201528260608201520152565b9190820391821161180357565b600d5490600160401b82101561034957613990600192838101600d556132aa565b9290926137cb5781518051906001600160401b038211610349576139b48554613172565b601f8111613a8c575b50602090601f8311600114613a215791806080949260049694600092613a16575b5050600019600383901b1c191690821b1785555b60208201519085015560408101516002850155606081015160038501550151910155565b0151905038806139de565b90601f1983169186600052816000209260005b818110613a765750928593928592600498966080989510613a5d575b505050811b0185556139f2565b015160001960f88460031b161c19169055388080613a50565b8284015185559386019360209384019301613a34565b613ab890866000526020600020601f850160051c8101916020861061033f57601f0160051c0190613610565b386139bd565b6040519060208201904482524260408401526bffffffffffffffffffffffff199060601b1660608301526054825260808201918083106001600160401b0384111761034957600a92604052519020068015613b165790565b50600590565b60405191906000835b60028210613b395750505061371a82612e6a565b6001602081928554815201930191019091613b25565b90604051613b5c81612e85565b809260ff81541660038110156106785782526040516001613b8382610e65818487016131ac565b6020918285015260405191826002918286016000925b848410613bec575050505050509081613bb360a093612e6a565b6040840152613bc460048201613b1c565b6060840152613bd560068201613b1c565b6080840152600801546000196001831b0116910152565b81546001600160a01b0316815292850192908501908201613b99565b15613c0f57565b60405162461bcd60e51b815260206004820152601960248201527847616d6520746f6b656e20646f65736e27742065786973742160381b6044820152606490fd5b90604051613c5d81612e4f565b608060048294604051613c748161386581856131ac565b84526001810154602085015260028101546040850152600381015460608501520154910152565b90613ca4613936565b50613cb1611da7836138cd565b60009160018060a01b03168252602091600a835260408120926040518094859183825491828152019185528385209385905b828210613d7f57505050613cf992500384612ebb565b8251811015613d305781613d0d82856133b5565b5114613d2157613d1c906133a6565b613cf9565b506135d79150611e4d906132aa565b60405162461bcd60e51b815260206004820152602160248201527f546f6b656e20776974682074686520676976656e204944206e6f7420666f756e6044820152601960fa1b6064820152608490fd5b855484526001958601958995509381019390910190613ce3565b90600091613da9611da7826138cd565b60018060a01b03168252602091600a835260408120926040518094859183825491828152019185528385209385905b828210613e2a57505050613dee92500384612ebb565b8251811015613d305781613e0282856133b5565b5114613e1657613e11906133a6565b613dee565b5060029150613e24906132aa565b50015490565b855484526001958601958995509381019390910190613dd8565b6020613e5d918160405193828580945193849201612f3e565b8101600b81520301902054151590565b604090600060a08351613e7f81612e85565b8094838252606060208301528051613e9681612e6a565b81368237818301528051613ea981612e6a565b813682376060830152805190613ebe82612e6a565b36823760808201520152565b613ed2613e6d565b50613edc81613e44565b15613f0657613f0061041e60206135d7938160405193828580945193849201612f3e565b50613b4f565b60405162461bcd60e51b8152602060048201526015602482015274426174746c6520646f65736e27742065786973742160581b6044820152606490fd5b15613f4a57565b60405162461bcd60e51b8152602060048201526019602482015278596f7520646f6e2774206f776e207468697320746f6b656e2160381b6044820152606490fd5b7f333333333333333333333333333333333333333333333333333333333333333381116001166118035760050290565b909291926137cb57825160038110156106785760ff8019835416911617815560019283820191602092838301518051906001600160401b0382116103495781906140058454613172565b601f8111614154575b508690601f83116001146140f1576000926140e6575b5050600019600383901b1c191690871b1790555b60408201519260005b6002948582101561406c5780516001600160a01b031684830190960195909555938101938601614041565b50509092509390929360608401518260005b600281106140d157505050608084015160005b600281106140bd57505050506008019060a0600180821b039101511660018060a01b0319825416179055565b815185820160060155908201908301614091565b8383519301926004828801015501839061407e565b015190503880614024565b90899350601f1983169185600052886000209260005b8a82821061413e5750508411614125575b505050811b019055614038565b015160001960f88460031b161c19169055388080614118565b8385015186558d97909501949384019301614107565b61417e908560005288600020601f850160051c8101918a861061033f57601f0160051c0190613610565b3861400e565b600e5490600160401b821015610349576141a782600161371a9401600e5561313d565b90613fbb565b6001600160a01b03166000908152600a60205260408120805492915b8381106141d95750505050600090565b826141e48284613273565b90549060031b1c146141fe576141f9906133a6565b6141c9565b50505050600190565b60408082018260018060a01b03808351511692606061422c8185019586515190613c9b565b9460209561424585888651015116888451015190613c9b565b88519061425182612e6a565b600094858352858a840152829360808a01948551948c8651600197888214808091614977575b15614605575050505050508101918a826142988b8651938c510151166137e1565b0151116143745750505050505091808561436f93600a6002614353600080516020614c1f8339815191529a98828b526142e18688875151169c60a081019d8e52019e8f51614983565b86855151168152600986528c80822054918888885101511681522054908484614330600461430e8561328b565b50019360ff1994858154169055601960036143288361328b565b50015561328b565b500155600461433e8361328b565b5001908154169055601960036143288361328b565b5001555101511696519351169451928284938452830190612f61565b0390a3565b8192939495969798995001908151906143908a8a5151166137e1565b015111614422575050505050828693600080516020614c1f8339815191529593600a600261440761436f96828a526143da89878188510151169b60a081019c8d52019d8e51614983565b85855151168152600989528b8082205491878b885101511681522054908484614330600461430e8561328b565b50015551511696519351169451928284938452830190612f61565b61445160036144478c899e9960098e9f999a9e8e8e985198515116835252205461328b565b5001918254613962565b905551868987510151168a52600989526144726003614447858d205461328b565b90558585515116895260098852600261448d838b205461328b565b50018054600219918282019182116145f15755868987510151168a526009895260026144bb848c205461328b565b500180549182019182116145dd575584519392899289925b8151908197865b600281106145c35750505061451e9650907fc6bf860cbc15f7020f73993a671f01bbb1831a8a7a12c126ca735eb632e7577591a18281515251015285810151614983565b61452b8282515116613abe565b8060036145398651516132aa565b500155600a03600a81116145af5761456792918591600461455b8751516132aa565b50015551015116613abe565b80600361457785855101516132aa565b500155600a0392600a841161459b5750600491614596915101516132aa565b500155565b634e487b7160e01b81526011600452602490fd5b634e487b7160e01b86526011600452602486fd5b81518c168a52988601988e97508d969091019082016144da565b634e487b7160e01b8b52601160045260248bfd5b634e487b7160e01b8c52601160045260248cfd5b8e9f5090818e9f95989997969b9c9d9e93929061496a575b1561475d5750508661463a819461464794608094510151166137e1565b01519401938451906134e6565b910151918183106146985750505050505050505082869385600080516020614c1f8339815191529694600a600261435361436f97828b526142e18688875151169c60a081019d8e52019e8f51614983565b82908a9f9a9e98999d9e505111600014614743575050506146be888b89510151166137e1565b01515b878a88510151168b5260098a5260036146dc858d205461328b565b50015586865151168a526009895260026146f8848c205461328b565b500180546002198101919082116145f15755868987510151168a52600989526002614725848c205461328b565b5001805490600382018092116145f157555b928992899295946144d3565b61474e929350613962565b90888b895101511690526146c1565b91509b9a999897969594925086916002809d14928391829461495b575b5050156148cd575050836147996080828f8f9061463a915151166137e1565b910151918183106147ea575050505050505050509280600080516020614c1f8339815191529593600a846144078b9861436f978a526143da89878188510151169b60a081019c8d52019d8e51614983565b899f9a9596979992948e9f999e9294868f93968f988d9851116000146148a757505050600394928260099261482661483797958a5151166137e1565b0151975b515116835252205461328b565b50015587875151168b5260098a5280614852858d205461328b565b5001805490600382018092116148935755878a88510151168b5260098a5261487c848c205461328b565b500180546002198101919082116145f15755614737565b634e487b7160e01b8d52601160045260248dfd5b60099350976148c061483797959260039997949a613962565b988282515116905261482a565b91508a959697999f9a93508094508d9e989d92509361494e575b5050506148f5575b50614737565b87875151168b5260098a528061490d858d205461328b565b5001805490600382018092116148935755878a88510151168b5260098a52614937848c205461328b565b5001805490600382018092116145f15755386148ef565b0151149050818b386148e7565b909150820151148f889061477a565b506002848201511461461d565b50898483015114614277565b9061498d82613e44565b156149b1576141a761041e602061371a948160405193828580945193849201612f3e565b60405162461bcd60e51b815260206004820152601460248201527310985d1d1b1948191bd95cdb89dd08195e1a5cdd60621b6044820152606490fd5b6149f5613e6d565b508151600381101561067857600214614ab8576002825260018060a01b038091168060a0840152600080516020614c1f833981519152602092838501614a3c868251614983565b614aa8828660408901828151511660005260098252600a6002614a7f60406000205486868651015116600052604060002054908484614330600461430e8561328b565b5001555180518316888103614aae5750015116915b516040519384938885521696830190612f61565b0390a390565b9250505091614a94565b60405162461bcd60e51b815260206004820152601460248201527310985d1d1b1948185b1c9958591e48195b99195960621b6044820152606490fd5b614afe8154613172565b9081614b08575050565b81601f60009311600114614b1a575055565b81835260208320614b3691601f0160051c810190600101613610565b8160208120915555565b8015614c005780816000925b614bec575080614b5b83612edc565b92614b696040519485612ebb565b808452601f19614b7882612edc565b01366020860137915b614b8a57505090565b81600019918284019384116118035783600a80830480950481118515151661180357614bbc60ff938492870290613962565b16603001918211611803578551111561315c5760f81b6001600160f81b03191660001a908401601f015380614b81565b91614bf8600a916133a6565b920480614b4c565b50604051614c0d81612e6a565b60018152600360fc1b60208201529056feae6e5eafb6cd1cb4b139e7a0b9140aa182ee7d50e99f50d660156f79212acbc0a26469706673582212205ef1a9f3f52b092f7d241326bedd5c04b91826727bc63faee236f5c13a2975db64736f6c63430008100033405787fa12a823e0f2b7631cc41b3ba8828b3321ca811111fa75cd3aa3bb5ace",
  "linkReferences": {},
  "deployedLinkReferences": {}
}