{
  "_format": "hh-sol-artifact-1",
  "contractName": "MythicRealms",
  "sourceName": "contracts/MythicRealms.sol",
  "abi": [
    {
      "inputs": [
        {
          "internalType": "string",
          "name": "_metadataURI",
          "type": "string"
        }
      ],
      "stateMutability": "nonpayable",
      "type": "constructor"
    },
    {
      "anonymous": false,
      "inputs": [
        {
          "indexed": true,
          "internalType": "address",
          "name": "account",
          "type": "address"
        },
        {
          "indexed": true,
          "internalType": "address",
          "name": "operator",
          "type": "address"
        },
        {
          "indexed": false,
          "internalType": "bool",
          "name": "approved",
          "type": "bool"
        }
      ],
      "name": "ApprovalForAll",
      "type": "event"
    },
    {
      "anonymous": false,
      "inputs": [
        {
          "indexed": false,
          "internalType": "string",
          "name": "battleName",
          "type": "string"
        },
        {
          "indexed": true,
          "internalType": "address",
          "name": "winner",
          "type": "address"
        },
        {
          "indexed": true,
          "internalType": "address",
          "name": "loser",
          "type": "address"
        }
      ],
      "name": "BattleEnded",
      "type": "event"
    },
    {
      "anonymous": false,
      "inputs": [
        {
          "indexed": true,
          "internalType": "string",
          "name": "battleName",
          "type": "string"
        },
        {
          "indexed": true,
          "internalType": "bool",
          "name": "isFirstMove",
          "type": "bool"
        }
      ],
      "name": "BattleMove",
      "type": "event"
    },
    {
      "anonymous": false,
      "inputs": [
        {
          "indexed": false,
          "internalType": "string",
          "name": "battleName",
          "type": "string"
        },
        {
          "indexed": true,
          "internalType": "address",
          "name": "player1",
          "type": "address"
        },
        {
          "indexed": true,
          "internalType": "address",
          "name": "player2",
          "type": "address"
        }
      ],
      "name": "NewBattle",
      "type": "event"
    },
    {
      "anonymous": false,
      "inputs": [
        {
          "indexed": true,
          "internalType": "address",
          "name": "owner",
          "type": "address"
        },
        {
          "indexed": false,
          "internalType": "uint256",
          "name": "id",
          "type": "uint256"
        },
        {
          "indexed": false,
          "internalType": "uint256",
          "name": "attackStrength",
          "type": "uint256"
        },
        {
          "indexed": false,
          "internalType": "uint256",
          "name": "defenseStrength",
          "type": "uint256"
        }
      ],
      "name": "NewGameToken",
      "type": "event"
    },
    {
      "anonymous": false,
      "inputs": [
        {
          "indexed": true,
          "internalType": "address",
          "name": "owner",
          "type": "address"
        },
        {
          "indexed": false,
          "internalType": "string",
          "name": "name",
          "type": "string"
        }
      ],
      "name": "NewPlayer",
      "type": "event"
    },
    {
      "anonymous": false,
      "inputs": [
        {
          "indexed": true,
          "internalType": "address",
          "name": "previousOwner",
          "type": "address"
        },
        {
          "indexed": true,
          "internalType": "address",
          "name": "newOwner",
          "type": "address"
        }
      ],
      "name": "OwnershipTransferred",
      "type": "event"
    },
    {
      "anonymous": false,
      "inputs": [
        {
          "indexed": false,
          "internalType": "address[2]",
          "name": "damagedPlayers",
          "type": "address[2]"
        }
      ],
      "name": "RoundEnded",
      "type": "event"
    },
    {
      "anonymous": false,
      "inputs": [
        {
          "indexed": true,
          "internalType": "address",
          "name": "operator",
          "type": "address"
        },
        {
          "indexed": true,
          "internalType": "address",
          "name": "from",
          "type": "address"
        },
        {
          "indexed": true,
          "internalType": "address",
          "name": "to",
          "type": "address"
        },
        {
          "indexed": false,
          "internalType": "uint256[]",
          "name": "ids",
          "type": "uint256[]"
        },
        {
          "indexed": false,
          "internalType": "uint256[]",
          "name": "values",
          "type": "uint256[]"
        }
      ],
      "name": "TransferBatch",
      "type": "event"
    },
    {
      "anonymous": false,
      "inputs": [
        {
          "indexed": true,
          "internalType": "address",
          "name": "operator",
          "type": "address"
        },
        {
          "indexed": true,
          "internalType": "address",
          "name": "from",
          "type": "address"
        },
        {
          "indexed": true,
          "internalType": "address",
          "name": "to",
          "type": "address"
        },
        {
          "indexed": false,
          "internalType": "uint256",
          "name": "id",
          "type": "uint256"
        },
        {
          "indexed": false,
          "internalType": "uint256",
          "name": "value",
          "type": "uint256"
        }
      ],
      "name": "TransferSingle",
      "type": "event"
    },
    {
      "anonymous": false,
      "inputs": [
        {
          "indexed": false,
          "internalType": "string",
          "name": "value",
          "type": "string"
        },
        {
          "indexed": true,
          "internalType": "uint256",
          "name": "id",
          "type": "uint256"
        }
      ],
      "name": "URI",
      "type": "event"
    },
    {
      "inputs": [],
      "name": "MAX_ATTACK_DEFEND_STRENGTH",
      "outputs": [
        {
          "internalType": "uint256",
          "name": "",
          "type": "uint256"
        }
      ],
      "stateMutability": "view",
      "type": "function"
    },
    {
      "inputs": [
        {
          "internalType": "uint8",
          "name": "_choice",
          "type": "uint8"
        },
        {
          "internalType": "string",
          "name": "_battleName",
          "type": "string"
        }
      ],
      "name": "attackOrDefendChoice",
      "outputs": [],
      "stateMutability": "nonpayable",
      "type": "function"
    },
    {
      "inputs": [
        {
          "internalType": "address",
          "name": "account",
          "type": "address"
        },
        {
          "internalType": "uint256",
          "name": "id",
          "type": "uint256"
        }
      ],
      "name": "balanceOf",
      "outputs": [
        {
          "internalType": "uint256",
          "name": "",
          "type": "uint256"
        }
      ],
      "stateMutability": "view",
      "type": "function"
    },
    {
      "inputs": [
        {
          "internalType": "address[]",
          "name": "accounts",
          "type": "address[]"
        },
        {
          "internalType": "uint256[]",
          "name": "ids",
          "type": "uint256[]"
        }
      ],
      "name": "balanceOfBatch",
      "outputs": [
        {
          "internalType": "uint256[]",
          "name": "",
          "type": "uint256[]"
        }
      ],
      "stateMutability": "view",
      "type": "function"
    },
    {
      "inputs": [],
      "name": "baseURI",
      "outputs": [
        {
          "internalType": "string",
          "name": "",
          "type": "string"
        }
      ],
      "stateMutability": "view",
      "type": "function"
    },
    {
      "inputs": [
        {
          "internalType": "string",
          "name": "",
          "type": "string"
        }
      ],
      "name": "battleInfo",
      "outputs": [
        {
          "internalType": "uint256",
          "name": "",
          "type": "uint256"
        }
      ],
      "stateMutability": "view",
      "type": "function"
    },
    {
      "inputs": [
        {
          "internalType": "uint256",
          "name": "",
          "type": "uint256"
        }
      ],
      "name": "battles",
      "outputs": [
        {
          "internalType": "enum MythicRealms.BattleStatus",
          "name": "battleStatus",
          "type": "uint8"
        },
        {
          "internalType": "string",
          "name": "name",
          "type": "string"
        },
        {
          "internalType": "address",
          "name": "winner",
          "type": "address"
        }
      ],
      "stateMutability": "view",
      "type": "function"
    },
    {
      "inputs": [
        {
          "internalType": "string",
          "name": "_name",
          "type": "string"
        },
        {
          "internalType": "uint256",
          "name": "playerTokenId",
          "type": "uint256"
        }
      ],
      "name": "createBattle",
      "outputs": [
        {
          "components": [
            {
              "internalType": "enum MythicRealms.BattleStatus",
              "name": "battleStatus",
              "type": "uint8"
            },
            {
              "internalType": "string",
              "name": "name",
              "type": "string"
            },
            {
              "internalType": "address[2]",
              "name": "players",
              "type": "address[2]"
            },
            {
              "internalType": "uint256[2]",
              "name": "playerTokenIds",
              "type": "uint256[2]"
            },
            {
              "internalType": "uint256[2]",
              "name": "moves",
              "type": "uint256[2]"
            },
            {
              "internalType": "address",
              "name": "winner",
              "type": "address"
            }
          ],
          "internalType": "struct MythicRealms.Battle",
          "name": "",
          "type": "tuple"
        }
      ],
      "stateMutability": "nonpayable",
      "type": "function"
    },
    {
      "inputs": [
        {
          "internalType": "string",
          "name": "_name",
          "type": "string"
        }
      ],
      "name": "createRandomGameToken",
      "outputs": [],
      "stateMutability": "nonpayable",
      "type": "function"
    },
    {
      "inputs": [
        {
          "internalType": "uint256",
          "name": "id",
          "type": "uint256"
        }
      ],
      "name": "exists",
      "outputs": [
        {
          "internalType": "bool",
          "name": "",
          "type": "bool"
        }
      ],
      "stateMutability": "view",
      "type": "function"
    },
    {
      "inputs": [
        {
          "internalType": "uint256",
          "name": "",
          "type": "uint256"
        }
      ],
      "name": "gameTokens",
      "outputs": [
        {
          "internalType": "string",
          "name": "name",
          "type": "string"
        },
        {
          "internalType": "uint256",
          "name": "id",
          "type": "uint256"
        },
        {
          "internalType": "uint256",
          "name": "tokenHash",
          "type": "uint256"
        },
        {
          "internalType": "uint256",
          "name": "attackStrength",
          "type": "uint256"
        },
        {
          "internalType": "uint256",
          "name": "defenseStrength",
          "type": "uint256"
        }
      ],
      "stateMutability": "view",
      "type": "function"
    },
    {
      "inputs": [],
      "name": "getAllBattles",
      "outputs": [
        {
          "components": [
            {
              "internalType": "enum MythicRealms.BattleStatus",
              "name": "battleStatus",
              "type": "uint8"
            },
            {
              "internalType": "string",
              "name": "name",
              "type": "string"
            },
            {
              "internalType": "address[2]",
              "name": "players",
              "type": "address[2]"
            },
            {
              "internalType": "uint256[2]",
              "name": "playerTokenIds",
              "type": "uint256[2]"
            },
            {
              "internalType": "uint256[2]",
              "name": "moves",
              "type": "uint256[2]"
            },
            {
              "internalType": "address",
              "name": "winner",
              "type": "address"
            }
          ],
          "internalType": "struct MythicRealms.Battle[]",
          "name": "",
          "type": "tuple[]"
        }
      ],
      "stateMutability": "view",
      "type": "function"
    },
    {
      "inputs": [
        {
          "internalType": "string",
          "name": "_name",
          "type": "string"
        }
      ],
      "name": "getBattle",
      "outputs": [
        {
          "components": [
            {
              "internalType": "enum MythicRealms.BattleStatus",
              "name": "battleStatus",
              "type": "uint8"
            },
            {
              "internalType": "string",
              "name": "name",
              "type": "string"
            },
            {
              "internalType": "address[2]",
              "name": "players",
              "type": "address[2]"
            },
            {
              "internalType": "uint256[2]",
              "name": "playerTokenIds",
              "type": "uint256[2]"
            },
            {
              "internalType": "uint256[2]",
              "name": "moves",
              "type": "uint256[2]"
            },
            {
              "internalType": "address",
              "name": "winner",
              "type": "address"
            }
          ],
          "internalType": "struct MythicRealms.Battle",
          "name": "",
          "type": "tuple"
        }
      ],
      "stateMutability": "view",
      "type": "function"
    },
    {
      "inputs": [
        {
          "internalType": "string",
          "name": "_battleName",
          "type": "string"
        }
      ],
      "name": "getBattleMoves",
      "outputs": [
        {
          "internalType": "uint256",
          "name": "P1Move",
          "type": "uint256"
        },
        {
          "internalType": "uint256",
          "name": "P2Move",
          "type": "uint256"
        }
      ],
      "stateMutability": "view",
      "type": "function"
    },
    {
      "inputs": [
        {
          "internalType": "address",
          "name": "addr",
          "type": "address"
        }
      ],
      "name": "getPlayer",
      "outputs": [
        {
          "components": [
            {
              "internalType": "address",
              "name": "playerAddress",
              "type": "address"
            },
            {
              "internalType": "string",
              "name": "playerName",
              "type": "string"
            },
            {
              "internalType": "uint256",
              "name": "playerMana",
              "type": "uint256"
            },
            {
              "internalType": "uint256",
              "name": "playerHealth",
              "type": "uint256"
            },
            {
              "internalType": "bool",
              "name": "inBattle",
              "type": "bool"
            }
          ],
          "internalType": "struct MythicRealms.Player",
          "name": "",
          "type": "tuple"
        }
      ],
      "stateMutability": "view",
      "type": "function"
    },
    {
      "inputs": [
        {
          "internalType": "address",
          "name": "addr",
          "type": "address"
        },
        {
          "internalType": "uint256",
          "name": "id",
          "type": "uint256"
        }
      ],
      "name": "getPlayerTokenById",
      "outputs": [
        {
          "components": [
            {
              "internalType": "string",
              "name": "name",
              "type": "string"
            },
            {
              "internalType": "uint256",
              "name": "id",
              "type": "uint256"
            },
            {
              "internalType": "uint256",
              "name": "tokenHash",
              "type": "uint256"
            },
            {
              "internalType": "uint256",
              "name": "attackStrength",
              "type": "uint256"
            },
            {
              "internalType": "uint256",
              "name": "defenseStrength",
              "type": "uint256"
            }
          ],
          "internalType": "struct MythicRealms.GameToken",
          "name": "",
          "type": "tuple"
        }
      ],
      "stateMutability": "view",
      "type": "function"
    },
    {
      "inputs": [
        {
          "internalType": "address",
          "name": "addr",
          "type": "address"
        },
        {
          "internalType": "uint256",
          "name": "id",
          "type": "uint256"
        }
      ],
      "name": "getPlayerTokenHash",
      "outputs": [
        {
          "internalType": "uint256",
          "name": "",
          "type": "uint256"
        }
      ],
      "stateMutability": "view",
      "type": "function"
    },
    {
      "inputs": [
        {
          "internalType": "address",
          "name": "addr",
          "type": "address"
        }
      ],
      "name": "getPlayerTokens",
      "outputs": [
        {
          "components": [
            {
              "internalType": "string",
              "name": "name",
              "type": "string"
            },
            {
              "internalType": "uint256",
              "name": "id",
              "type": "uint256"
            },
            {
              "internalType": "uint256",
              "name": "tokenHash",
              "type": "uint256"
            },
            {
              "internalType": "uint256",
              "name": "attackStrength",
              "type": "uint256"
            },
            {
              "internalType": "uint256",
              "name": "defenseStrength",
              "type": "uint256"
            }
          ],
          "internalType": "struct MythicRealms.GameToken[]",
          "name": "",
          "type": "tuple[]"
        }
      ],
      "stateMutability": "view",
      "type": "function"
    },
    {
      "inputs": [
        {
          "internalType": "address",
          "name": "account",
          "type": "address"
        },
        {
          "internalType": "address",
          "name": "operator",
          "type": "address"
        }
      ],
      "name": "isApprovedForAll",
      "outputs": [
        {
          "internalType": "bool",
          "name": "",
          "type": "bool"
        }
      ],
      "stateMutability": "view",
      "type": "function"
    },
    {
      "inputs": [
        {
          "internalType": "string",
          "name": "_name",
          "type": "string"
        }
      ],
      "name": "isBattle",
      "outputs": [
        {
          "internalType": "bool",
          "name": "",
          "type": "bool"
        }
      ],
      "stateMutability": "view",
      "type": "function"
    },
    {
      "inputs": [
        {
          "internalType": "address",
          "name": "addr",
          "type": "address"
        }
      ],
      "name": "isPlayer",
      "outputs": [
        {
          "internalType": "bool",
          "name": "",
          "type": "bool"
        }
      ],
      "stateMutability": "view",
      "type": "function"
    },
    {
      "inputs": [
        {
          "internalType": "address",
          "name": "addr",
          "type": "address"
        }
      ],
      "name": "isPlayerToken",
      "outputs": [
        {
          "internalType": "bool",
          "name": "",
          "type": "bool"
        }
      ],
      "stateMutability": "view",
      "type": "function"
    },
    {
      "inputs": [
        {
          "internalType": "string",
          "name": "_name",
          "type": "string"
        },
        {
          "internalType": "uint256",
          "name": "playerTokenId",
          "type": "uint256"
        }
      ],
      "name": "joinBattle",
      "outputs": [
        {
          "components": [
            {
              "internalType": "enum MythicRealms.BattleStatus",
              "name": "battleStatus",
              "type": "uint8"
            },
            {
              "internalType": "string",
              "name": "name",
              "type": "string"
            },
            {
              "internalType": "address[2]",
              "name": "players",
              "type": "address[2]"
            },
            {
              "internalType": "uint256[2]",
              "name": "playerTokenIds",
              "type": "uint256[2]"
            },
            {
              "internalType": "uint256[2]",
              "name": "moves",
              "type": "uint256[2]"
            },
            {
              "internalType": "address",
              "name": "winner",
              "type": "address"
            }
          ],
          "internalType": "struct MythicRealms.Battle",
          "name": "",
          "type": "tuple"
        }
      ],
      "stateMutability": "nonpayable",
      "type": "function"
    },
    {
      "inputs": [],
      "name": "owner",
      "outputs": [
        {
          "internalType": "address",
          "name": "",
          "type": "address"
        }
      ],
      "stateMutability": "view",
      "type": "function"
    },
    {
      "inputs": [
        {
          "internalType": "address",
          "name": "",
          "type": "address"
        }
      ],
      "name": "playerInfo",
      "outputs": [
        {
          "internalType": "uint256",
          "name": "",
          "type": "uint256"
        }
      ],
      "stateMutability": "view",
      "type": "function"
    },
    {
      "inputs": [
        {
          "internalType": "address",
          "name": "",
          "type": "address"
        },
        {
          "internalType": "uint256",
          "name": "",
          "type": "uint256"
        }
      ],
      "name": "playerTokenInfo",
      "outputs": [
        {
          "internalType": "uint256",
          "name": "",
          "type": "uint256"
        }
      ],
      "stateMutability": "view",
      "type": "function"
    },
    {
      "inputs": [
        {
          "internalType": "uint256",
          "name": "",
          "type": "uint256"
        }
      ],
      "name": "players",
      "outputs": [
        {
          "internalType": "address",
          "name": "playerAddress",
          "type": "address"
        },
        {
          "internalType": "string",
          "name": "playerName",
          "type": "string"
        },
        {
          "internalType": "uint256",
          "name": "playerMana",
          "type": "uint256"
        },
        {
          "internalType": "uint256",
          "name": "playerHealth",
          "type": "uint256"
        },
        {
          "internalType": "bool",
          "name": "inBattle",
          "type": "bool"
        }
      ],
      "stateMutability": "view",
      "type": "function"
    },
    {
      "inputs": [
        {
          "internalType": "string",
          "name": "_battleName",
          "type": "string"
        }
      ],
      "name": "quitBattle",
      "outputs": [],
      "stateMutability": "nonpayable",
      "type": "function"
    },
    {
      "inputs": [
        {
          "internalType": "string",
          "name": "_name",
          "type": "string"
        }
      ],
      "name": "registerPlayer",
      "outputs": [],
      "stateMutability": "nonpayable",
      "type": "function"
    },
    {
      "inputs": [],
      "name": "renounceOwnership",
      "outputs": [],
      "stateMutability": "nonpayable",
      "type": "function"
    },
    {
      "inputs": [],
      "name": "resetData",
      "outputs": [],
      "stateMutability": "nonpayable",
      "type": "function"
    },
    {
      "inputs": [
        {
          "internalType": "address",
          "name": "from",
          "type": "address"
        },
        {
          "internalType": "address",
          "name": "to",
          "type": "address"
        },
        {
          "internalType": "uint256[]",
          "name": "ids",
          "type": "uint256[]"
        },
        {
          "internalType": "uint256[]",
          "name": "amounts",
          "type": "uint256[]"
        },
        {
          "internalType": "bytes",
          "name": "data",
          "type": "bytes"
        }
      ],
      "name": "safeBatchTransferFrom",
      "outputs": [],
      "stateMutability": "nonpayable",
      "type": "function"
    },
    {
      "inputs": [
        {
          "internalType": "address",
          "name": "from",
          "type": "address"
        },
        {
          "internalType": "address",
          "name": "to",
          "type": "address"
        },
        {
          "internalType": "uint256",
          "name": "id",
          "type": "uint256"
        },
        {
          "internalType": "uint256",
          "name": "amount",
          "type": "uint256"
        },
        {
          "internalType": "bytes",
          "name": "data",
          "type": "bytes"
        }
      ],
      "name": "safeTransferFrom",
      "outputs": [],
      "stateMutability": "nonpayable",
      "type": "function"
    },
    {
      "inputs": [
        {
          "internalType": "address",
          "name": "operator",
          "type": "address"
        },
        {
          "internalType": "bool",
          "name": "approved",
          "type": "bool"
        }
      ],
      "name": "setApprovalForAll",
      "outputs": [],
      "stateMutability": "nonpayable",
      "type": "function"
    },
    {
      "inputs": [
        {
          "internalType": "string",
          "name": "newuri",
          "type": "string"
        }
      ],
      "name": "setURI",
      "outputs": [],
      "stateMutability": "nonpayable",
      "type": "function"
    },
    {
      "inputs": [
        {
          "internalType": "bytes4",
          "name": "interfaceId",
          "type": "bytes4"
        }
      ],
      "name": "supportsInterface",
      "outputs": [
        {
          "internalType": "bool",
          "name": "",
          "type": "bool"
        }
      ],
      "stateMutability": "view",
      "type": "function"
    },
    {
      "inputs": [
        {
          "internalType": "uint256",
          "name": "tokenId",
          "type": "uint256"
        }
      ],
      "name": "tokenURI",
      "outputs": [
        {
          "internalType": "string",
          "name": "",
          "type": "string"
        }
      ],
      "stateMutability": "view",
      "type": "function"
    },
    {
      "inputs": [],
      "name": "totalSupply",
      "outputs": [
        {
          "internalType": "uint256",
          "name": "",
          "type": "uint256"
        }
      ],
      "stateMutability": "view",
      "type": "function"
    },
    {
      "inputs": [
        {
          "internalType": "uint256",
          "name": "id",
          "type": "uint256"
        }
      ],
      "name": "totalSupply",
      "outputs": [
        {
          "internalType": "uint256",
          "name": "",
          "type": "uint256"
        }
      ],
      "stateMutability": "view",
      "type": "function"
    },
    {
      "inputs": [
        {
          "internalType": "address",
          "name": "newOwner",
          "type": "address"
        }
      ],
      "name": "transferOwnership",
      "outputs": [],
      "stateMutability": "nonpayable",
      "type": "function"
    },
    {
      "inputs": [
        {
          "internalType": "string",
          "name": "_newName",
          "type": "string"
        }
      ],
      "name": "updatePlayerName",
      "outputs": [],
      "stateMutability": "nonpayable",
      "type": "function"
    },
    {
      "inputs": [
        {
          "internalType": "uint256",
          "name": "",
          "type": "uint256"
        }
      ],
      "name": "uri",
      "outputs": [
        {
          "internalType": "string",
          "name": "",
          "type": "string"
        }
      ],
      "stateMutability": "view",
      "type": "function"
    }
  ],
  "bytecode": "0x60806040523462000b155762006053803803806200001d8162000b7a565b92833981019060208183031262000b15578051906001600160401b03821162000b15570181601f8201121562000b15578051906001600160401b038211620007695762000074601f8301601f191660200162000b7a565b928284526020838301011162000b155760005b82811062000aff57600083850160200152835184906001600160401b0381116200076957600254600181811c9116801562000af4575b60208210146200074857601f811162000ab2575b50806020601f821160011462000a3a5760009162000a2e575b508160011b916000199060031b1c1916176002555b60038054336001600160a01b0319821681179092556040516001600160a01b03909116907f8be0079c531659141344cd1fd0a4f28419497f9722a3daafe3b4186f6b6457e090600090a36001600581905560085580516001600160401b0381116200076957600654600181811c9116801562000a23575b60208210146200074857601f8111620009d0575b506020601f82116001146200096357819260009262000957575b50508160011b916000199060031b1c1916176006555b620001c462000b1a565b620001ce62000b5a565b60008152815260006020820152600060408201526000606082015260006080820152600d546801000000000000000081101562000769576001810180600d558110156200079557600d6000528151805190927fd7b6990105719101dabeb77144f2a3385c8033acd3af97e9423a695e81ad1eb5916001600160401b038111620007695760058402830154600181811c911680156200094c575b60208210146200074857601f811162000911575b506020601f8211600114620008925791816080926005946004979860009262000886575b50508160011b916000199060031b1c1916178387028501555b60208101519590920292909201600181019490945560408101516002850155606081015160038501550151910155620002f062000b1a565b60008152620002fe62000b5a565b600081526020820152600060408201526000606082015260006080820152600c54906801000000000000000082101562000769576001820180600c558210156200079557600c6000528051600583027fdf6966c971051c3d54ec59162606531493a51404a002842f56009d7e5cf4a8c790810180546001600160a01b0319166001600160a01b039390931692909217909155602082015180519093906001600160401b038111620007695760016005830284010154600181811c911680156200087b575b60208210146200074857601f81116200083d575b506020601f8211600114620007b75791816005926004959460809798600092620007ab575b50508160011b916000199060031b1c1916176001838302850101555b60408601516002838302850101556060860151600383830285010155020101910151151560ff801983541691161790556200045162000b3a565b60008152600060208201526200046662000b3a565b60008152600060208201526200047b62000b3a565b60008082526020820152604051929091906001600160401b0360c0850190811190851117620007695760c0840160405260008452620004b962000b5a565b600081526020850152604084015260608301526080820152600060a0820152600e546801000000000000000081101562000769576001810180600e558110156200079557600e60005281517fbb7b4a454dc3493923482f07822329ed19e8244eff582cc204f8554c3620c3fd919060038110156200077f57600982028301805460ff191660ff9290921691909117815560208401518051600190920191906001600160401b0382116200076957825490600182811c921680156200075e575b6020831014620007485781601f84931162000706575b50602090601f83116001146200069b576000926200068f575b50508160011b916000199060031b1c19161790555b604083015160005b6002811062000669575050606083015160005b600281106200064c575050608083015160005b600281106200062f5760a085015160098402850160080180546001600160a01b0319166001600160a01b0392909216919091179055604051615479908162000bba8239f35b6001906020835193019260068260098702880101015501620005ea565b6001906020835193019260048260098702880101015501620005d7565b81516001600160a01b0316600260098502860183010155602090910190600101620005c4565b015190508680620005a7565b6000858152602081209350601f198516905b818110620006ed5750908460019594939210620006d3575b505050811b019055620005bc565b015160001960f88460031b161c19169055868080620006c5565b92936020600181928786015181550195019301620006ad565b6200073690856000526020600020601f850160051c810191602086106200073d575b601f0160051c019062000ba0565b876200058e565b909150819062000728565b634e487b7160e01b600052602260045260246000fd5b91607f169162000578565b634e487b7160e01b600052604160045260246000fd5b634e487b7160e01b600052602160045260246000fd5b634e487b7160e01b600052603260045260246000fd5b015190508880620003fb565b60016005840285010160005260206000209560005b601f198416811062000824575082608096976004969593600193600596601f198116106200080a575b505050811b0160018383028501015562000417565b015160001960f88460031b161c19169055888080620007f5565b82820151885560019097019660209283019201620007cc565b62000874906001600585028601016000526020600020601f840160051c810191602085106200073d57601f0160051c019062000ba0565b85620003d6565b90607f1690620003c2565b0151905088806200029f565b60058502840160005260206000209560005b601f1984168110620008f85750826004969760059593600193608096601f19811610620008de575b505050811b01838702850155620002b8565b015160001960f88460031b161c19169055888080620008cc565b82820151885560019097019660209283019201620008a4565b62000945906005860285016000526020600020601f840160051c810191602085106200073d57601f0160051c019062000ba0565b856200027b565b90607f169062000267565b015190508280620001a4565b600660005260206000209060005b601f1984168110620009b7575060019383601f198116106200099d575b505050811b01600655620001ba565b015160001960f88460031b161c191690558280806200098e565b9091602060018192858801518155019301910162000971565b600660005262000a1c907ff652222313e28459528d920b65115c16c04f3efc82aaedc97be59f3f377c0d3f601f840160051c810191602085106200073d57601f0160051c019062000ba0565b826200018a565b90607f169062000176565b905082015183620000ea565b60026000908152600080516020620060338339815191529250601f198416905b81811062000a995750908360019493921062000a7f575b5050811b01600255620000ff565b84015160001960f88460031b161c19169055838062000a71565b9192602060018192868901518155019401920162000a5a565b600260005262000aed9060008051602062006033833981519152601f840160051c810191602085106200073d57601f0160051c019062000ba0565b82620000d1565b90607f1690620000bd565b8060208092840101518282870101520162000087565b600080fd5b6040519060a082016001600160401b038111838210176200076957604052565b60408051919082016001600160401b038111838210176200076957604052565b60405190602082016001600160401b038111838210176200076957604052565b6040519190601f01601f191682016001600160401b038111838210176200076957604052565b81811062000bac575050565b6000815560010162000ba056fe6080604052600436101561001257600080fd5b60003560e01c8062fdd58e14612f0157806301ffc9a714612e9357806302fe530514612d6c57806309c95e1014612d495780630daea2cd14612d2d5780630e89341c14612c7c5780631107ae3d14612c4257806316801d1714612bf857806318160ddd14612bda5780632eb2c2d6146127ab5780633835e2b51461274f578063478c4e0e1461215f5780634b114691146121255780634e1273f414611f875780634f558e7914611f595780635c12cd4b14611ee45780635c93fc3d14611dfb5780635d79c38c14611c7c578063606d2e9614611bf85780636c0360eb14611b16578063715018a614611ab45780638bdb3b2f1461170c5780638da5cb5b146116e35780639592e20d146116b4578063996d7bea146115835780639b09cc87146115325780639ec40aa3146110f9578063a22cb4651461100c578063a42bdf6e14610fb4578063b3446f8514610eb6578063ba27495614610e6f578063bd85b03914610e43578063bf034b6914610d9b578063bf103a4d14610d6e578063c1fa081e14610d32578063c87b56dd14610c2a578063e985e9c514610bd4578063f242432a14610830578063f2fde38b14610764578063f71d96cb146106cb578063f89a854c146103dd5763febda2e8146101e957600080fd5b346103d8576020806003193601126103d8576001600160401b03906004358281116103d85761021c903690600401612ffc565b916102263361378e565b1561039b573360005260098252604060002054600c5481101561035f5761024c90613390565b50916001809301938051928311610349576102678554613277565b601f811161030e575b5081601f84116001146102ab57509282939183926000946102a0575b50501b916000199060031b1c19161790555b005b01519250388061028c565b919083601f1981168760005284600020946000905b888383106102f457505050106102db575b505050811b019055005b015160001960f88460031b161c191690553880806102d1565b8587015188559096019594850194879350908101906102c0565b610339908660005283600020601f860160051c81019185871061033f575b601f0160051c0190613777565b38610270565b909150819061032c565b634e487b7160e01b600052604160045260246000fd5b60405162461bcd60e51b8152600481018490526014602482015273092dcecc2d8d2c840e0d8c2f2cae440d2dcc8caf60631b6044820152606490fd5b60405162461bcd60e51b8152600481018390526015602482015274141b185e595c881b9bdd081c9959da5cdd195c9959605a1b6044820152606490fd5b600080fd5b346103d8576103eb36613347565b906103f4613ffc565b506103fe81613fd3565b1561068e5761042e604051828180945161041e8160209788809601613043565b8101600b81520301902054613242565b50805460ff8116600381101561067857610639576002820180546001600160a01b03929083163381146105ea57608061046633613932565b01516105b15761047533613a1e565b1561055a5786849161049361048e610541999a33614162565b6140d2565b600160ff1980951617875560038701913360018060a01b031984541617835560058801556000526009885260046104ce604060002054613390565b5001600184825416179055541660005260098652600160046104f4604060002054613390565b5001918254161790555416604051908482527f024187b16c217a79f8d8e6252b542ec6e278fa91304acd9cfd866f2bbf00bd08339280610539888201600188016132b1565b0390a3613cde565b906105566040519282849384528301906130c0565b0390f35b60405162461bcd60e51b815260048101879052602960248201527f596f75206d7573742068617665206120746f6b656e20746f206a6f696e2074686044820152686520626174746c652160b81b6064820152608490fd5b60405162461bcd60e51b8152600481018790526011602482015270416c726561647920696e20626174746c6560781b6044820152606490fd5b60405162461bcd60e51b815260048101879052602160248201527f4f6e6c7920706c617965722074776f2063616e206a6f696e206120626174746c6044820152606560f81b6064820152608490fd5b60405162461bcd60e51b8152600481018490526017602482015276426174746c6520616c726561647920737461727465642160481b6044820152606490fd5b634e487b7160e01b600052602160045260246000fd5b60405162461bcd60e51b815260206004820152601560248201527410985d1d1b1948191bd95cc81b9bdd08195e1a5cdd605a1b6044820152606490fd5b346103d85760203660031901126103d857600435600c548110156103d857600c6000526005602060002091020160018060a01b038154166040519161071e8361071781600185016132b1565b0384612fc0565b60028101549060ff60046003830154920154169061074e604051958695865260a0602087015260a0860190613066565b9260408501526060840152151560808301520390f35b346103d85760203660031901126103d85761077d612f28565b6107856133ce565b6001600160a01b039081169081156107dc57600380546001600160a01b03198116841790915560405160009390929091167f8be0079c531659141344cd1fd0a4f28419497f9722a3daafe3b4186f6b6457e08484a3f35b60405162461bcd60e51b815260206004820152602660248201527f4f776e61626c653a206e6577206f776e657220697320746865207a65726f206160448201526564647265737360d01b6064820152608490fd5b346103d85760a03660031901126103d857610849612f28565b610851612f3e565b90608480356001600160401b0381116103d857610872903690600401612ffc565b6001600160a01b03919083831633148015610ba9575b610891906134db565b8285161561089f811561353f565b6108aa604435613752565b6108b5606435613752565b9185871615610b49575b610a9b575b505060443560005260209460008652604060002084861660005286526040600020546108f4606435821015613599565b604435600052600087526040600020858716600052875260643590036040600020556044356000526000865260406000208482166000528652604060002061093f60643582546135f8565b905560405160443581526064358782015284821690858716906000805160206153e483398151915260403392a4803b61097457005b60a060006109be958895604051978896879586938563f23a6e6160e01b9d8e87523360048801521660248601526044356044860152606435606486015284015260a4830190613066565b0393165af160009181610a6c575b50610a425750506001906109de61366e565b6308c379a014610a0d575b506109f057005b60405162461bcd60e51b815280610a09600482016136fd565b0390fd5b610a1561368c565b9081610a2157506109e9565b610a0960405192839262461bcd60e51b845260048401526024830190613066565b6001600160e01b03191614905061029e5760405162461bcd60e51b815280610a0960048201613625565b610a8d919250843d8611610a94575b610a858183612fc0565b810190613605565b90846109cc565b503d610a7b565b92959194909360005b8451811015610b3a57610ab781866134c7565b5190610ac381886134c7565b51826000526004602052604060002054818110610af757610af2936000526004602052036040600020556134ab565b610aa4565b60405162461bcd60e51b81526020600482015260286024820152600080516020615424833981519152604482015267616c537570706c7960c01b60648201528b90fd5b509350939094915085806108c4565b959260009794919592975b8651811015610b9b5780610b6b610b96928b6134c7565b51610b76828a6134c7565b516000526004602052610b8f60406000209182546135f8565b90556134ab565b610b54565b5092959691949093966108bf565b50828416600052600160205260406000203360005260205261089160ff604060002054169050610888565b346103d85760403660031901126103d857610bed612f28565b610bf5612f3e565b9060018060a01b03809116600052600160205260406000209116600052602052602060ff604060002054166040519015158152f35b346103d8576020806003193601126103d857610c47600435615305565b90604051918260009160065492610c5d84613277565b600194868682169182600014610d0d575050600114610ccb575b509264173539b7b760d91b6006939285602f60f81b610cb79752610ca3825180938a8785019101613043565b019182015203601919810185520183612fc0565b610556604051928284938452830190613066565b8591506006600052816000206000905b828210610cf557505083010164173539b7b760d91b610c77565b80548983018501528895508793909101908601610cdb565b60ff1916818701528215159092028501909101915064173539b7b760d91b9050610c77565b346103d85760403660031901126103d857610556610d5a610d51612f28565b60243590613e2a565b604051918291602083526020830190613204565b346103d85760203660031901126103d8576020610d91610d8c612f28565b613a1e565b6040519015158152f35b346103d85760203660031901126103d857600435600d548110156103d857600d600052604051610e2a916005027fd7b6990105719101dabeb77144f2a3385c8033acd3af97e9423a695e81ad1eb501610dff82610df881846132b1565b0383612fc0565b600181015490600281015490600460038201549101549160405195869560a0875260a0870190613066565b9360208601526040850152606084015260808301520390f35b346103d85760203660031901126103d85760043560005260046020526020604060002054604051908152f35b346103d85760403660031901126103d85760043560ff811681036103d857602435906001600160401b0382116103d857610eb061029e923690600401612ffc565b906141cd565b346103d8576020806003193601126103d8576004356001600160401b0381116103d857610ee7903690600401612ffc565b610ef03361378e565b610f7357610f6e7f81ef79d1cda814a60c0fc60792e648a06d9c6bae67176346d1cc8b63030bfccd91600c54610f4d604051610f2b81612f54565b3381528387820152600a604082015260196060820152600060808201526137ab565b33600052600985526040600020556040519182918583523395830190613066565b0390a2005b60405162461bcd60e51b8152600481018390526019602482015278141b185e595c88185b1c9958591e481c9959da5cdd195c9959603a1b6044820152606490fd5b346103d85760403660031901126103d857610fcd612f28565b6001600160a01b03166000908152600a60205260409020805460243591908210156103d857602091610ffe91613378565b90546040519160031b1c8152f35b346103d85760403660031901126103d857611025612f28565b60243590811515908183036103d8576001600160a01b0316913383146110a2576110749033600052600160205260406000208460005260205260406000209060ff801983541691151516179055565b6040519081527f17307eab39ab6107e8899845ad3d59bd9653f200f220920489ca2b5937696c3160203392a3005b60405162461bcd60e51b815260206004820152602960248201527f455243313135353a2073657474696e6720617070726f76616c20737461747573604482015268103337b91039b2b63360b91b6064820152608490fd5b346103d8576020806003193601126103d8576001600160401b036004358181116103d85761112b903690600401612ffc565b608061113633613932565b01516114f55761114d6111483361378e565b613a3b565b61115633613a1e565b6114b057611162613a87565b5061116c33613c4d565b9081600a0392600a8411611310576040518581014281523360601b60408301526034825260608201908282108483111761034957601e90826040528351902006600194858201809211611310576111e893889260e092600854906111cf87612f54565b8652608083015260a08201528760c08201520152613ac0565b33600052600a8552611201604060002060085490613c0f565b60085460405190918682019081118282101761034957604052600081523315611461578261122e83613752565b60405161123a81612f6f565b8281528836818301378261124d826134ba565b526000835b61141c575b5050505081600052600086526040600020336000528652604060002080549084820180921161131057556040518281528387820152600033916000805160206153e483398151915260403392a485333b611326575b505050506112bb6008546134ab565b92836008556112cb6007546134ab565b60075560001984019384116113105760405193845283015260408201527fca8ab07e9ed17d119729fc652dd24df9d8430ca862dda4631925b5b4b99da36260603392a2005b634e487b7160e01b600052601160045260246000fd5b611366916040518093819263f23a6e6160e01b9687845233600485015260006024850152604484015287606484015260a0608484015260a4830190613066565b03816000335af1600091816113fd575b506113d357505061138561366e565b6308c379a01461139e575b6109f0575b838080856112ac565b6113a661368c565b806113b15750611390565b84610a0960405192839262461bcd60e51b845260048401526024830190613066565b6001600160e01b0319161490506113955760405162461bcd60e51b815280610a0960048201613625565b611415919250873d8911610a9457610a858183612fc0565b9087611376565b825181101561145c578061143361145692846134c7565b5161143e82866134c7565b5160005260048c52610b8f60406000209182546135f8565b83611252565b611257565b60405162461bcd60e51b815260048101879052602160248201527f455243313135353a206d696e7420746f20746865207a65726f206164647265736044820152607360f81b6064820152608490fd5b60405162461bcd60e51b815260048101849052601a60248201527f506c6179657220616c726561647920686173206120746f6b656e0000000000006044820152606490fd5b60405162461bcd60e51b8152600481018490526015602482015274506c6179657220697320696e206120626174746c6560581b6044820152606490fd5b346103d85760203660031901126103d8576004356001600160401b0381116103d857608061156e6115696040933690600401612ffc565b614059565b01516020815191015182519182526020820152f35b346103d85760203660031901126103d8576004356001600160401b0381116103d8576115b3903690600401612ffc565b60026005541461166f57600260055560406115cd82614059565b0190815160018060a01b039081815116331490811561165f575b501561161a5761160b92518181511633811460001461161257506020015116614c98565b6001600555005b915050614c98565b60405162461bcd60e51b815260206004820152601b60248201527f596f7520617265206e6f7420696e207468697320626174746c652100000000006044820152606490fd5b60200151821633149050846115e7565b60405162461bcd60e51b815260206004820152601f60248201527f5265656e7472616e637947756172643a207265656e7472616e742063616c6c006044820152606490fd5b346103d85760403660031901126103d85760206116db6116d2612f28565b60243590613f28565b604051908152f35b346103d85760003660031901126103d8576003546040516001600160a01b039091168152602090f35b346103d85761171a36613347565b90611723613ffc565b506117306111483361378e565b61173933613a1e565b15611a5c5761174781613fd3565b611a1e5761175861048e8333614162565b60405161176481612f6f565b338152600060208201526040519261177b84612f6f565b8352600060208401526040519061179182612f6f565b6000825260006020830152604051916117a983612f8a565b6000835260208301948486526040840192835260608401526080830152600060a0830152600e54600160401b811015610349578060016117ec9201600e55613242565b949094611a08578251600381101561067857611808908661411a565b518051906001600160401b0382116103495781906118296001880154613277565b601f81116119d3575b50602090601f831160011461196157600092611956575b50508160011b916000199060031b1c19161760018501555b519060005b6002928382101561188e57906001916020838060a01b03825116910194828801015501611866565b848387606082015160005b6002811061193f575050608082015160005b6002811061192857505060a082015160089190910180546001600160a01b0319166001600160a01b0392909216919091179055600e546000198101908111611310576119096020610556948160405193828580945193849201613043565b8101600b815203019020556040519182916020835260208301906130c0565b6001906020835193019260068286010155016118ab565b600190602083519301926004828601015501611899565b015190508680611849565b9250600187016000526020600020906000935b601f19841685106119b8576001945083601f1981161061199f575b505050811b016001850155611861565b015160001960f88460031b161c1916905586808061198f565b81810151835560209485019460019093019290910190611974565b611a0290600189016000526020600020601f850160051c8101916020861061033f57601f0160051c0190613777565b87611832565b634e487b7160e01b600052600060045260246000fd5b60405162461bcd60e51b8152602060048201526016602482015275426174746c6520616c7265616479206578697374732160501b6044820152606490fd5b60405162461bcd60e51b815260206004820152602a60248201527f596f75206d7573742068617665206120746f6b656e20746f20656e7465722074604482015269686520626174746c652160b01b6064820152608490fd5b346103d85760003660031901126103d857611acd6133ce565b600380546001600160a01b0319811690915560405160009182906001600160a01b03167f8be0079c531659141344cd1fd0a4f28419497f9722a3daafe3b4186f6b6457e08284a3f35b346103d85760003660031901126103d857604051600090600654611b3981613277565b808352600191808316908115611bd05750600114611b76575b61055683611b6281870382612fc0565b604051918291602083526020830190613066565b6006600090815260209450917ff652222313e28459528d920b65115c16c04f3efc82aaedc97be59f3f377c0d3f5b828410611bbd57505050810190910190611b6281611b52565b8054858501870152928501928101611ba4565b6105569550611b6293506020915091849260ff191682840152151560051b8201019350611b52565b346103d85760203660031901126103d857600435600e548110156103d857611c6190600e6000526009602060002091020160ff81541690611c7260405191611c478361071781600185016132b1565b600860018060a01b0391015416916040519485809561308b565b606060208501526060840190613066565b9060408301520390f35b346103d8576020806003193601126103d857611c96612f28565b611ca7611ca282613a1e565b613d97565b60018060a01b0316600052600a81526040600020604051808284829454938481520190600052846000209260005b86828210611de55784611cea81860382612fc0565b805190611cf68261315b565b91611d046040519384612fc0565b808352611d13601f199161315b565b018360005b828110611dcf5750505060005b8151811015611d6e5780611d4e611d48611d42611d6994866134c7565b516133af565b50613ddf565b611d5882866134c7565b52611d6381856134c7565b506134ab565b611d25565b50506040519082820192808352815180945260408301938160408260051b8601019301916000955b828710611da35785850386f35b909192938280611dbf600193603f198a82030186528851613204565b9601920196019592919092611d96565b611dd7613a87565b828287010152018490611d18565b8554845260019586019587955093019201611cd5565b346103d85760003660031901126103d857600e54611e188161315b565b90611e266040519283612fc0565b808252600e6000908152602091828401917fbb7b4a454dc3493923482f07822329ed19e8244eff582cc204f8554c3620c3fd835b838310611ec15750505050604051918083019381845251809452604083019360408160051b85010192916000955b828710611e955785850386f35b909192938280611eb1600193603f198a820301865288516130c0565b9601920196019592919092611e88565b600986600192611ed3859a999a613cde565b815201920192019190959495611e5a565b346103d85760203660031901126103d857611f05611f00612f28565b613932565b60405180916020825260018060a01b0381511660208301526080611f38602083015160a0604086015260c0850190613066565b91604081015160608501526060810151828501520151151560a08301520390f35b346103d85760203660031901126103d857600435600052600460205260206040600020541515604051908152f35b346103d85760403660031901126103d8576004356001600160401b038082116103d857366023830112156103d857816004013590611fc48261315b565b92611fd26040519485612fc0565b82845260209260248486019160051b830101913683116103d857602401905b828210612106575050506024359081116103d857612013903690600401613172565b82518151036120af578251926120288461315b565b936120366040519586612fc0565b808552612045601f199161315b565b01368486013760005b815181101561209857612093906120836001600160a01b0361207083866134c7565b511661207c83876134c7565b5190613426565b61208d82886134c7565b526134ab565b61204e565b5050506105566040519282849384528301906131d0565b60405162461bcd60e51b815260048101839052602960248201527f455243313135353a206163636f756e747320616e6420696473206c656e677468604482015268040dad2e6dac2e8c6d60bb1b6064820152608490fd5b81356001600160a01b03811681036103d8578152908401908401611ff1565b346103d85760203660031901126103d8576001600160a01b03612146612f28565b1660005260096020526020604060002054604051908152f35b346103d85760003660031901126103d8576121786133ce565b60015b600c548110156121fa57806121926121a892613390565b50546001600160a01b0316806121ad57506134ab565b61217b565b80600991600052602090600a82526040600020805460008255806121df575b5050600052526000604081205582611d63565b6121f3916000528360002090810190613777565b85806121cc565b60015b600e548110156122ab57600161221282613242565b50019060405160009280549061222782613277565b9160018116908115612293575060011461225b575b505080602060009285600b612256975203019020556134ab565b6121fd565b9093506000526020806000206000905b858210612281575050509182019180602061223c565b8054848301529082019060010161226b565b60ff191684525050801515028101925080602061223c565b600c546000600c55806126e0575b50600d546000600d5580612671575b50600e546000600e55806125c1575b50600160085560006007556040516122ee81612f54565b6040516122fa81612fa5565b600081528152612326602091600083820152600060408201526000606082015260006080820152613ac0565b61236760405161233581612f54565b6000815260405161234581612fa5565b60008152838201526000604082015260006060820152600060808201526137ab565b60405161237381612f6f565b600081526000828201526040519061238a82612f6f565b60008252600083830152604051916123a183612f6f565b60008352600084840152604051936123b885612f8a565b60008552604051926123c984612fa5565b6000845281860193845260408601908152606086019283526080860194855260a086019360008552600e54600160401b811015610349578060016124109201600e55613242565b979097611a08575160038110156106785761242b908861411a565b51805160018801916001600160401b03821161034957819061244d8454613277565b601f8111612591575b508590601f831160011461252c57600092612521575b50508160011b916000199060031b1c19161790555b519260005b600294858210156124b25780516001600160a01b03168883019096019590955593820193600101612486565b82888589885160005b6002811061250c5750505160005b600281106124f75784516008850180546001600160a01b0319166001600160a01b0392909216919091179055005b815184820160060155908201906001016124c9565b815185820160040155908301906001016124bb565b01519050898061246c565b60008581528781209350601f198516905b8882821061257b575050908460019594939210612562575b505050811b019055612481565b015160001960f88460031b161c19169055898080612555565b600185968293968601518155019501930161253d565b6125bb908560005287600020601f850160051c81019189861061033f57601f0160051c0190613777565b8a612456565b7f1c71c71c71c71c71c71c71c71c71c71c71c71c71c71c71c71c71c71c71c71c71811160011661131057600e60005260099081027fbb7b4a454dc3493923482f07822329ed19e8244eff582cc204f8554c3620c3fd908101905b8181106126295750506122d7565b80600084925561263b600182016152b9565b60006004820161264e8160028501613777565b61265c600684018092613777565b61266a600884018092613777565b550161261b565b61267a90614132565b600d6000527fd7b6990105719101dabeb77144f2a3385c8033acd3af97e9423a695e81ad1eb5908101905b8181106126b257506122c8565b806126be6005926152b9565b60006001820155600060028201556000600382015560006004820155016126a5565b6126e990614132565b600c6000527fdf6966c971051c3d54ec59162606531493a51404a002842f56009d7e5cf4a8c7908101905b81811061272157506122b9565b80600060059255612734600182016152b9565b60006002820155600060038201556000600482015501612714565b346103d85760203660031901126103d8576004356001600160401b0381116103d857612798602061278581933690600401612ffc565b8160405193828580945193849201613043565b8101600b81520301902054604051908152f35b346103d85760031960a0368201126103d8576127c5612f28565b906127ce612f3e565b906001600160401b03604480358281116103d8576127f0903690600401613172565b9060649081358481116103d85761280b903690600401613172565b9460849485359081116103d857612826903690600401612ffc565b6001600160a01b0398891698909190338a148015612bb1575b612848906134db565b8551885103612b5e578816958615612860811561353f565b8a15612b1b575b612a68575b60005b86518110156128ff57806128866128fa92896134c7565b518c612892838d6134c7565b51918060005282602092600084526040600020816000528452604060002054906128be83831015613599565b8360005260008552604060002090600052845203604060002055600052600081526040600020908b60005252610b8f60406000209182546135f8565b61286f565b5090919293968998878a604051604081527f4a39dc06d4c0dbc64b70af90fd698a233a518aa5d07e595d983b8c0526c8f7fb61293e604083018c6131d0565b918083036020820152806129533394896131d0565b0390a43b61295d57005b604051978896879663bc197c8160e01b9b8c89523360048a01526024890152870160a0905260a4870161298f916131d0565b908487830301908701526129a2916131d0565b9184830301908401526129b491613066565b03815a602094600091f160009181612a48575b50612a2057505060016129d861366e565b6308c379a0146129e9575b6109f057005b6129f161368c565b806129fc57506129e3565b60405162461bcd60e51b815260206004820152908190610a09906024830190613066565b6001600160e01b0319161461029e5760405162461bcd60e51b815280610a0960048201613625565b612a6191925060203d8111610a9457610a858183612fc0565b90836129c7565b96949398929590979160005b8551811015612b0c57612a8781876134c7565b51612a9282896134c7565b51908060005260206004815260406000205491838310612acb57612ac69493929160049160005252036040600020556134ab565b612a74565b508b9067616c537570706c7960c01b8f6000805160206154248339815191528e6040519462461bcd60e51b8652600486015260286024860152840152820152fd5b5091979095929893949661286c565b98959996949392919060005b8b51811015612b4f57808c610b7682612b43612b4a958f6134c7565b51926134c7565b612b27565b50909192939496999598612867565b60405162461bcd60e51b815260206004820152602860248201527f455243313135353a2069647320616e6420616d6f756e7473206c656e6774682081860152670dad2e6dac2e8c6d60c31b818701528790fd5b5089600052600160205260406000203360005260205261284860ff60406000205416905061283f565b346103d85760003660031901126103d8576020600754604051908152f35b346103d85760203660031901126103d8576004356001600160401b0381116103d857612c2e611569610556923690600401612ffc565b6040519182916020835260208301906130c0565b346103d85760203660031901126103d8576004356001600160401b0381116103d857610d91612c776020923690600401612ffc565b613fd3565b346103d8576020806003193601126103d8576040519060008260025491612ca283613277565b92838352600190858282169182600014612d0d575050600114612ccd575b50610cb792500383612fc0565b849150600260005281600020906000915b858310612cf5575050610cb7935082010185612cc0565b80548389018501528794508693909201918101612cde565b60ff191685820152610cb795151560051b8501019250879150612cc09050565b346103d85760003660031901126103d8576020604051600a8152f35b346103d85760203660031901126103d8576020610d91612d67612f28565b61378e565b346103d8576020806003193601126103d8576001600160401b036004358181116103d857612d9e903690600401612ffc565b91612da76133ce565b825191821161034957612dbb600254613277565b601f8111612e62575b5080601f8311600114612dfe57508192600092612df3575b50508160011b916000199060031b1c191617600255005b015190508280612ddc565b90601f19831693600260005282600020926000905b868210612e4a5750508360019510612e31575b505050811b01600255005b015160001960f88460031b161c19169055828080612e26565b80600185968294968601518155019501930190612e13565b612e8d90600260005282600020601f850160051c81019184861061033f57601f0160051c0190613777565b83612dc4565b346103d85760203660031901126103d85760043563ffffffff60e01b81168091036103d857602090636cdb3d1360e11b8114908115612ef0575b8115612edf575b506040519015158152f35b6301ffc9a760e01b14905082612ed4565b6303a24d0760e21b81149150612ecd565b346103d85760403660031901126103d85760206116db612f1f612f28565b60243590613426565b600435906001600160a01b03821682036103d857565b602435906001600160a01b03821682036103d857565b60a081019081106001600160401b0382111761034957604052565b604081019081106001600160401b0382111761034957604052565b60c081019081106001600160401b0382111761034957604052565b602081019081106001600160401b0382111761034957604052565b90601f801991011681019081106001600160401b0382111761034957604052565b6001600160401b03811161034957601f01601f191660200190565b81601f820112156103d85780359061301382612fe1565b926130216040519485612fc0565b828452602083830101116103d857816000926020809301838601378301015290565b60005b8381106130565750506000910152565b8181015183820152602001613046565b9060209161307f81518092818552858086019101613043565b601f01601f1916010190565b9060038210156106785752565b6000915b600283106130a957505050565b60019082518152602080910192019201919061309c565b906130cc81835161308b565b6020916130e6838201516101208086860152840190613066565b92604082015190604084016000905b6002821061313c57505050508061311760606101009301516080850190613098565b613129608082015160c0850190613098565b60a001516001600160a01b031691015290565b83516001600160a01b03168152928201926001919091019082016130f5565b6001600160401b0381116103495760051b60200190565b81601f820112156103d8578035916131898361315b565b926131976040519485612fc0565b808452602092838086019260051b8201019283116103d8578301905b8282106131c1575050505090565b813581529083019083016131b3565b90815180825260208080930193019160005b8281106131f0575050505090565b8351855293810193928101926001016131e2565b9060808061321b845160a0855260a0850190613066565b93602081015160208501526040810151604085015260608101516060850152015191015290565b600e5481101561326157600e6000526009602060002091020190600090565b634e487b7160e01b600052603260045260246000fd5b90600182811c921680156132a7575b602083101461329157565b634e487b7160e01b600052602260045260246000fd5b91607f1691613286565b90600092918054916132c283613277565b91828252600193848116908160001461332457506001146132e4575b50505050565b90919394506000526020928360002092846000945b8386106133105750505050010190388080806132de565b8054858701830152940193859082016132f9565b9294505050602093945060ff191683830152151560051b010190388080806132de565b60406003198201126103d857600435906001600160401b0382116103d85761337191600401612ffc565b9060243590565b80548210156132615760005260206000200190600090565b600c5481101561326157600c6000526005602060002091020190600090565b600d5481101561326157600d6000526005602060002091020190600090565b6003546001600160a01b031633036133e257565b606460405162461bcd60e51b815260206004820152602060248201527f4f776e61626c653a2063616c6c6572206973206e6f7420746865206f776e65726044820152fd5b6001600160a01b031690811561345357600052600060205260406000209060005260205260406000205490565b60405162461bcd60e51b815260206004820152602a60248201527f455243313135353a2061646472657373207a65726f206973206e6f742061207660448201526930b634b21037bbb732b960b11b6064820152608490fd5b60001981146113105760010190565b8051156132615760200190565b80518210156132615760209160051b010190565b156134e257565b60405162461bcd60e51b815260206004820152602f60248201527f455243313135353a2063616c6c6572206973206e6f7420746f6b656e206f776e60448201526e195c881b9bdc88185c1c1c9bdd9959608a1b6064820152608490fd5b1561354657565b60405162461bcd60e51b815260206004820152602560248201527f455243313135353a207472616e7366657220746f20746865207a65726f206164604482015264647265737360d81b6064820152608490fd5b156135a057565b60405162461bcd60e51b815260206004820152602a60248201527f455243313135353a20696e73756666696369656e742062616c616e636520666f60448201526939103a3930b739b332b960b11b6064820152608490fd5b9190820180921161131057565b908160209103126103d857516001600160e01b0319811681036103d85790565b60809060208152602860208201527f455243313135353a204552433131353552656365697665722072656a656374656040820152676420746f6b656e7360c01b60608201520190565b60009060033d1161367b57565b905060046000803e60005160e01c90565b600060443d106136e957604051600319913d83016004833e81516001600160401b03918282113d6024840111176136ec578184019485519384116136f4573d850101602084870101116136ec57506136e992910160200190612fc0565b90565b949350505050565b50949350505050565b60809060208152603460208201527f455243313135353a207472616e7366657220746f206e6f6e20455243313135356040820152732932b1b2b4bb32b91034b6b83632b6b2b73a32b960611b60608201520190565b6040519061375f82612f6f565b6001825260203681840137613773826134ba565b5290565b818110613782575050565b60008155600101613777565b6001600160a01b0316600090815260096020526040902054151590565b600c5490600160401b821015610349576137cc600192838101600c55613390565b919091611a0857805182546001600160a01b0319166001600160a01b039190911617825560208082015180519094808501926001600160401b038311610349576138168454613277565b601f8111613902575b5080601f841160011461388e575091808060809593600497956138819a600094613883575b50501b916000199060031b1c19161790555b60408101516002850155606081015160038501550151151591019060ff801983541691151516179055565b565b015192503880613844565b9193949596601f1984168660005283600020936000905b8282106138eb575050926080959285926138819a999660049996106138d2575b505050811b019055613856565b015160001960f88460031b161c191690553880806138c5565b8088869782949787015181550196019401906138a5565b61392c908560005282600020601f860160051c81019184871061033f57601f0160051c0190613777565b3861381f565b60406080815161394181612f54565b600091818380935260606020820152828582015282606082015201526139668361378e565b156139e2576001600160a01b03928316815260096020528190205460ff9160049161399090613390565b509080519461399e86612f54565b825416855280516139bd816139b681600187016132b1565b0382612fc0565b6020860152600282015490850152600381015460608501520154161515608082015290565b815162461bcd60e51b8152602060048201526015602482015274506c6179657220646f65736e27742065786973742160581b6044820152606490fd5b6001600160a01b03166000908152600a6020526040902054151590565b15613a4257565b60405162461bcd60e51b815260206004820152601c60248201527f506c6561736520526567697374657220506c61796572204669727374000000006044820152606490fd5b60405190613a9482612f54565b6000608083606081528260208201528260408201528260608201520152565b9190820391821161131057565b600d5490600160401b82101561034957613ae1600192838101600d556133af565b929092611a085781518051906001600160401b03821161034957613b058554613277565b601f8111613bdd575b50602090601f8311600114613b725791806080949260049694600092613b67575b5050600019600383901b1c191690821b1785555b60208201519085015560408101516002850155606081015160038501550151910155565b015190503880613b2f565b90601f1983169186600052816000209260005b818110613bc75750928593928592600498966080989510613bae575b505050811b018555613b43565b015160001960f88460031b161c19169055388080613ba1565b8284015185559386019360209384019301613b85565b613c0990866000526020600020601f850160051c8101916020861061033f57601f0160051c0190613777565b38613b0e565b80549190600160401b8310156103495782613c3291600161388195018155613378565b90919082549060031b600019811b9283911b16911916179055565b6040519060208201904282524460408401526bffffffffffffffffffffffff199060601b1660608301526054825260808201918083106001600160401b0384111761034957600a92604052519020068015613ca55790565b50600590565b60405191906000835b60028210613cc85750505061388182612f6f565b6001602081928554815201930191019091613cb4565b90604051613ceb81612f8a565b809260ff81541660038110156106785782526040516001613d1282610df8818487016132b1565b6020918285015260405191826002918286016000925b848410613d7b575050505050509081613d4260a093612f6f565b6040840152613d5360048201613cab565b6060840152613d6460068201613cab565b6080840152600801546000196001831b0116910152565b81546001600160a01b0316815292850192908501908201613d28565b15613d9e57565b60405162461bcd60e51b815260206004820152601960248201527847616d6520746f6b656e20646f65736e27742065786973742160381b6044820152606490fd5b90604051613dec81612f54565b608060048294604051613e03816139b681856132b1565b84526001810154602085015260028101546040850152600381015460608501520154910152565b90613e33613a87565b50613e40611ca283613a1e565b60009160018060a01b03168252602091600a835260408120926040518094859183825491828152019185528385209385905b828210613f0e57505050613e8892500384612fc0565b8251811015613ebf5781613e9c82856134c7565b5114613eb057613eab906134ab565b613e88565b506136e99150611d48906133af565b60405162461bcd60e51b815260206004820152602160248201527f546f6b656e20776974682074686520676976656e204944206e6f7420666f756e6044820152601960fa1b6064820152608490fd5b855484526001958601958995509381019390910190613e72565b90600091613f38611ca282613a1e565b60018060a01b03168252602091600a835260408120926040518094859183825491828152019185528385209385905b828210613fb957505050613f7d92500384612fc0565b8251811015613ebf5781613f9182856134c7565b5114613fa557613fa0906134ab565b613f7d565b5060029150613fb3906133af565b50015490565b855484526001958601958995509381019390910190613f67565b6020613fec918160405193828580945193849201613043565b8101600b81520301902054151590565b604090600060a0835161400e81612f8a565b809483825260606020830152805161402581612f6f565b8136823781830152805161403881612f6f565b81368237606083015280519061404d82612f6f565b36823760808201520152565b614061613ffc565b5061406b81613fd3565b156140955761408f61041e60206136e9938160405193828580945193849201613043565b50613cde565b60405162461bcd60e51b8152602060048201526015602482015274426174746c6520646f65736e27742065786973742160581b6044820152606490fd5b156140d957565b60405162461bcd60e51b8152602060048201526019602482015278596f7520646f6e2774206f776e207468697320746f6b656e2160381b6044820152606490fd5b9060038110156106785760ff80198354169116179055565b7f333333333333333333333333333333333333333333333333333333333333333381116001166113105760050290565b6001600160a01b03166000908152600a60205260408120805492915b83811061418e5750505050600090565b826141998284613378565b90549060031b1c146141b3576141ae906134ab565b61417e565b50505050600190565b9060028110156132615760051b0190565b6141d682614059565b9081519160038310156106785760018093036145e45780516003811015610678576002146145a4576040918282019081519060018060a01b039182808251163314918215614593575b50501561454f5760009233845260209160098352868520549151953385885116146000146145485785945b61426660ff80971698891560001461454157878c5b16906141bc565b511686526009845287862054600361427d85613390565b500154156144f157614290600391613390565b500154156144de578660806142a69201516141bc565b5161449a578316908782149081156144935760026142c5600392613390565b50015410155b1561444457801561443a575b156143f6578551946142f68951968481818d019961041e81838d613043565b5060028210156143e2570160060155608061431088614059565b0190815151156000146143db5782845b16600203918383116143c7575101516143bf578180845b169116038181116143ab5716937f54b82b77e7ae55a8e6c9e89deba70c7191dea2a3b08ae647b380e9f981d6a0f891908086036143a05761438490935b8551809281928a51928391613043565b81010390209215159351a3156143975750565b61388190614659565b506143848193614374565b634e487b7160e01b83526011600452602483fd5b818087614337565b634e487b7160e01b85526011600452602485fd5b8287614320565b634e487b7160e01b86526032600452602486fd5b855162461bcd60e51b815260048101839052601f60248201527f43686f6963652073686f756c64206265206569746865722031206f72203221006044820152606490fd5b50600281146142d7565b865162461bcd60e51b815260048101849052602260248201527f4d616e61206e6f742073756666696369656e7420666f722061747461636b696e604482015261672160f01b6064820152608490fd5b50876142cb565b865162461bcd60e51b815260048101849052601d60248201527f596f75206861766520616c7265616479206d6164652061206d6f7665210000006044820152606490fd5b5050505050505050506138819033614c98565b885162461bcd60e51b815260048101869052602360248201527f43616e6e6f74206d616b652061206d6f76652077697468207a65726f206865616044820152620d8e8d60eb1b6064820152608490fd5b878961425f565b889461424a565b845162461bcd60e51b815260206004820152601a60248201527f596f7520617265206e6f7420696e207468697320626174746c650000000000006044820152606490fd5b60209192500151163314823861421f565b60405162461bcd60e51b815260206004820152601860248201527710985d1d1b19481a185cc8185b1c9958591e48195b99195960421b6044820152606490fd5b60405162461bcd60e51b815260206004820152604160248201527f426174746c65206e6f7420737461727465642e20506c656173652074656c6c2060448201527f616e6f7468657220706c6179657220746f206a6f696e2074686520626174746c6064820152606560f81b608482015260a490fd5b614671604051602081845161041e8183858901613043565b509060ff825416600381101561067857600214614c945760028201546001600160a01b03908116600081815260096020526040808220546003808801549095168352912054929091906146c383613390565b5001546146e65750505060039091015461388191906001600160a01b0316614c98565b60036146f184613390565b50015415614c87575060028401546004850154614716916001600160a01b0316613e2a565b60038501546005860154919291614735916001600160a01b0316613e2a565b926040519161474383612f6f565b600080845260208401526006870154600181148080614c79575b156149f0575050600261476f82613390565b500180546002199291838201918211611310575561478c83613390565b5060028101548084810111611310576147f3936002910191015560036147b182613390565b50015460608701518082116149db57505060036147fb6000945b85836147d683613390565b50015460608a0151908181116149c8575050836000968796613390565b500155613390565b50015560028701546001600160a01b0390811680855260038901549091166020850152911580806149c0575b156148705750505050606090810151910151116148575760029091015461388191906001600160a01b0316614c98565b60039091015461388191906001600160a01b0316614c98565b9193509193506000146148995750505060039091015461388191906001600160a01b0316614c98565b929192156149b35750505b60ff8254166003811015610678576002036148bd575050565b604051906000825b600282106149935750505060407fc6bf860cbc15f7020f73993a671f01bbb1831a8a7a12c126ca735eb632e7577591a16000600682018190556007820155600281015461491a906001600160a01b0316613c4d565b80600361492a60048501546133af565b500155600a03600a8111611310576004614946818401546133af565b5001556003810154614960906001600160a01b0316613c4d565b80600361497060058501546133af565b500155600a0390600a82116113105761498e600560049201546133af565b500155565b82516001600160a01b0316815260209283019260019290920191016148c5565b9091506138819250614c98565b508115614827565b85916149d391613ab3565b968796613390565b6149ea6147fb91600393613ab3565b946147cb565b939592949380614c6b575b15614afc5750614a0c600291613390565b500180546002198101919082116113105755614a2783613390565b5060028101546003810181116113105760036002910191015560806060600093015191015190818111614aeb575b50506003614a6283613390565b5001548110614aa757509060006003614a7e6138819694613390565b50015560038201546001600160a01b039081166020929092019190915260029091015416614c98565b80929350614ab7575b50506148a4565b6003614ac5614acf92613390565b5001918254613ab3565b905560038201546001600160a01b031660208201523880614ab0565b614af59250613ab3565b3880614a55565b9093919291906002148080614c5d575b15614bf857506002614b1d85613390565b50019081546003810180911161131057614b379255613390565b506002810154806002198101116113105760029081190191015560806060600093015191015190818111614be7575b50506003614b7383613390565b5001548110614bb157509060006003614b8f6138819694613390565b50015560028201546001600160a01b0390811690915260039091015416614c98565b80929350614bc05750506148a4565b6003614ac5614bce92613390565b905560028201546001600160a01b031681523880614ab0565b614bf19250613ab3565b3880614b66565b92509394505080614c4f575b614c0f5750506148a4565b614c1a600291613390565b50018054916003830180931161131057600292614c379255613390565b50018054906003820180921161131057553880614ab0565b506002600785015414614c04565b506001600789015414614b0c565b5060026007890154146149fb565b50600160078a01541461475d565b9150506138819250614c98565b5050565b604090815192614cb68482516020968161041e899383858901613043565b509384549360ff85169560039687811015610678576002146152b05760ff19958616600290811782556008820180546001600160a01b0319166001600160a01b03808916918217909255918301548116979196918888149081156152a957828b86015416915b1561529e576005850154995b60005260098752828b876000205496015416600052856000205490614d4c86613390565b509560048097018281541690558c614d6382613390565b500160199055614d7290613390565b50600201600a905585614d8483613390565b50019081541690558a614d9682613390565b500160199055614da590613390565b50600201600a9055614db78982613426565b1561525b57169687600052600a8552836000209887600052846000209060005b8b54808210156152445784614dec838f613378565b905490851b1c14614e065750614e01906134ab565b614dd7565b9060009c92939495969798999a9b9c199182810190811161522f5790613c32614e32614e3f9386613378565b905490871b1c9185613378565b8154801561521a579181869492614e6e96940192614e5d8484613378565b81939154921b1b1916905555613c0f565b835190614e7a82612fa5565b6000825233891480156151fc575b614e91906134db565b871592614e9e841561353f565b614ea782613752565b938651614eb381612f6f565b60019586928383528a368185013783614ecb846134ba565b528d1561519c575b6150eb575b5050508160005260008752856000208a60005287528560002054614efe85821015613599565b8260005260008852866000208b6000528852600019018660002055816000526000875285600020896000528752856000208054908582018092116150d657908b949392915589848851848152878b8201526000805160206153e48339815191528a3392a43b614f96575b505050505090614f91600080516020615404833981519152939251928284938452830190613066565b0390a3565b614fd59187918751938492839263f23a6e6160e01b97888552338b8601526024850152604484015287606484015260a0608484015260a4830190613066565b038160008c5af1600091816150b7575b50615072575050614ff461366e565b6308c379a01461503e575b615025575090614f9160008051602061540483398151915293925b919293863880614f68565b905162461bcd60e51b8152908190610a099082016136fd565b61504661368c565b806150515750614fff565b9050610a0991925193849362461bcd60e51b85528401526024830190613066565b6001600160e01b03191603905061509e575090614f91600080516020615404833981519152939261501a565b905162461bcd60e51b8152908190610a09908201613625565b6150cf919250873d8911610a9457610a858183612fc0565b9038614fe5565b601187634e487b7160e01b6000525260246000fd5b90916000905b6150fe575b869250614ed8565b81518110156151975761511181836134c7565b5161511c82856134c7565b519080600052898c528a6000205490828210615155579189959493918b8e61514d9560005252038b600020556134ab565b9091926150f1565b8b5162461bcd60e51b8152808c018e905260286024820152600080516020615424833981519152604482015267616c537570706c7960c01b6064820152608490fd5b6150f6565b6000845b6151ab575b50614ed3565b8293949192518110156151f257808c8b6151c86151e894896134c7565b51916151d484896134c7565b5160005252610b8f8d6000209182546135f8565b81949392916151a0565b93929190936151a5565b5060008981526001875285812033825287528590205460ff16614e88565b603188634e487b7160e01b6000525260246000fd5b601189634e487b7160e01b6000525260246000fd5b5050508192939495969798995090614e6e91613c0f565b845162461bcd60e51b8152808501879052601c60248201527f4c6f73657220646f6573206e6f74206f776e2074686520746f6b656e000000006044820152606490fd5b600485015499614d28565b8991614d1c565b50505050505050565b6152c38154613277565b90816152cd575050565b81601f600093116001146152df575055565b818352602083206152fb91601f0160051c810190600101613777565b8160208120915555565b80156153c55780816000925b6153b157508061532083612fe1565b9261532e6040519485612fc0565b808452601f1961533d82612fe1565b01366020860137915b61534f57505090565b81600019918284019384116113105783600a8083048095048111851515166113105761538160ff938492870290613ab3565b1660300191821161131057855111156132615760f81b6001600160f81b03191660001a908401601f015380615346565b916153bd600a916134ab565b920480615311565b506040516153d281612f6f565b60018152600360fc1b60208201529056fec3d58168c5ae7397731d063d5bbf3d657854427343f4c083240f7aacaa2d0f62ae6e5eafb6cd1cb4b139e7a0b9140aa182ee7d50e99f50d660156f79212acbc0455243313135353a206275726e20616d6f756e74206578636565647320746f74a264697066735822122069172a0cce035ce4b17e75785703563d636353b9da084f240d1088eb3d0858be64736f6c63430008100033405787fa12a823e0f2b7631cc41b3ba8828b3321ca811111fa75cd3aa3bb5ace",
  "linkReferences": {},
  "deployedLinkReferences": {}
}